:020000040800F2
:1000000000010020690100086B010008F9180008D0
:100010006B0100086B0100086B0100086B01000810
:100020006B0100086B0100086B010008E12B000860
:100030006B0100086B0100086B0100086B010008F0
:100040006B0100086B0100086B0100086B010008E0
:100050006B0100086B010008091900084919000824
:1000600089190008C9190008091A0008E52D0008B7
:10007000F92D00080D2E0008212E0008352E00084D
:10008000492E00085D2E00086B0100086B01000876
:100090006B0100086B0100086B010008491A000899
:1000A000090B00086B0100086B0100086B010008D8
:1000B000CB2500086B0100086B0100086B010008EC
:1000C0006B0100086B0100086B010008411D00086E
:1000D000711D00086B0100086B0100086B0100082E
:1000E000891A00086B0100086B0100086B01000809
:1000F0006B0100086B0100086B0100086B01000830
:100100006B0100086B0100086B0100086B0100081F
:100110006B0100086B0100086B0100086B0100080F
:100120006B0100086B0100086B0100086B010008FF
:100130006B0100086B0100086B0100086B010008EF
:100140006B0100086B0100086B0100086B010008DF
:100150006B0100086B0100086B0100086B010008CF
:080160002D0D0008C91500086F
:1001680016E000F000F8FEE72DE9F04FC1F80CD0DA
:10017800C3689D46BDE8F08F002383F311882846A5
:10018800A047002002F082FC02F053FB00DFFEE7EC
:1001980072B6274880F30888264880F309882648DD
:1001A8004EF60851CEF200010860022080F3148850
:1001B800BFF36F8F02F040FD02F03FFD4FF0553066
:1001C8001E491B4A91423CBF41F8040BFAE71C49FF
:1001D800184A91423CBF41F8040BFAE719491A4AF8
:1001E8001A4B9A423EBF51F8040B42F8040BF8E749
:1001F80000201749174A91423CBF41F8040BFAE71F
:1002080002F01EFD02F01AFD134C144DAC4203DA45
:1002180054F8041B8847F9E701F082F8104C114D97
:10022800AC4203DA54F8041B8847F9E702F007BD2B
:10023800000100200002002000000008000000204B
:10024800000100203C3200080002002008020020C3
:1002580008020020C80A00206001000868010008A0
:100268006801000868010008816A09B1836A1847B3
:10027800243002F01CBC0000104B984205D1104AF3
:10028800936943F00403936170470E4B984204D17D
:100298000B4A936943F00803F5E70B4B984204D1E6
:1002A800074A936943F01003EDE7084B9842EBD1F6
:1002B800034A936943F02003E5E700BF00080140C3
:1002C80000100240000C01400010014000140140E1
:1002D8000368197303689A68D207FCD5187B7047BE
:1002E80010B5FFF7C9FF134A0729936943F00103C3
:1002F80093610ED80F2289000368C9B28A4023EAA5
:10030800020303600923026803FA01F11143016043
:1003180010BD0F22083989004368C9B28A4023EA10
:10032800020343600923426803FA01F11143416063
:10033800EEE700BF0010024001238288012903FA7A
:1003480002F30BD0022911D039B90A4A916819432E
:100358009160D16821EA0303D3607047054A916828
:1003680021EA03019160D1680B43F5E7014A9168DE
:100378001943F7E70004014070B50446A679006800
:10038800A588FFF779FF002E3DD00123C268AB4056
:10039800022E0CBF22EA030313430822C360072D71
:1003A80033D8AB000F250668DBB29D4026EA050569
:1003B8000560056802FA03F32B430360A0882568EB
:1003C8002A4E00F00302B542C0F387034FEA8202C7
:1003D8002AD101259B0003F1804303F580339E68F1
:1003E80005FA02F232439A600126214D86402B68B5
:1003F800204633432B606B6823EA06036B60FFF7E4
:100408009BFF6E6170BD0422C9E70F26083DAD0051
:100418004368EDB2AE4023EA06034360436802FA3C
:1004280005F51D434560C9E7124EB54207D19B004B
:1004380003F1804303F5803302259E68D0E70E4E12
:10044800B54207D19B0003F1804303F580330325B0
:100458009E68C5E7094EB542C6D19B0003F18043AB
:1004680003F5803304259E68BAE700BF000C0140FD
:100478000004014000100140001401400018014030
:100488000123428A81689340034A8868184002D051
:10049800013AFAD101207047B88201000123C18ACC
:1004A800C2688B40136170470148FFF7DDBE00BF8B
:1004B800080200207F2908B2C4BFA1F5807108B2E4
:1004C80000EBD07040104A3840B270472DE9F04137
:1004D8004FF00108C38A1646C26808FA03F353614D
:1004E80004460F46FFF7CCFF054630B12046FFF71C
:1004F800D5FF45462846BDE8F08104F1040847F0D9
:1005080080014046FFF7E4FE00F0700084F8200008
:1005180029464046FFF7DCFE30702046FFF7BEFF55
:10052800E8E72DE9F0414FF00108C38A1646C26892
:1005380008FA03F3536104460F46FFF7A1FF054687
:1005480030B12046FFF7AAFF45462846BDE8F081AE
:1005580004F1040839464046FFF7BAFE31464046E2
:10056800FFF7B6FE2046FFF799FFEEE7F8B501273B
:10057800C38AC26807FA03F3536104460E46FFF7BD
:100588007FFF054628B12046FFF788FF3D462846ED
:10059800F8BD3146201DFFF79BFE84F82000204659
:1005A800FFF77CFF94F8203003F0700384F82030C4
:1005B800EDE700007FB50446C068E18AFFF75CFEFE
:1005C800072940D80F2289000368C9B28A4023EA64
:1005D800020303600123026803FA01F11143016079
:1005E800218AA068FFF77CFE618AA068FFF778FE81
:1005F800A18AA068FFF774FE012104F11800FFF733
:10060800BBFE2046FFF74AFF0023534A1946CDE9AF
:100618000023201D1A4601F033FB6268302113685D
:10062800204643F040031360FFF7A0FFD8B162688B
:100638004A48136823F04003136001F02DFD01259B
:10064800284604B070BD0F22083989004368C9B232
:100658008A4023EA020343600123426803FA01F156
:1006680011434160BCE7072206212046FFF759FFE6
:1006780008B13B48E1E78DF80F00062120460DF14F
:100688000F02FFF723FF054640B99DF80F60072EBC
:1006980006D03146334801F0FFFCD0E73248CCE7BA
:1006A8003A212046FFF762FF20220D212046FFF75E
:1006B80038FF25220E212046FFF733FFED220F21B8
:1006C8002046FFF72EFFA32213212046FFF729FF1C
:1006D800FF2214212046FFF724FF08221821204674
:1006E800FFF71FFF324603212046FFF71AFF3F227C
:1006F80029462046FFF715FF062202212046FFF76C
:1007080010FF0C2231462046FFF70BFF4422082138
:100718002046FFF706FF50223E212046FFF701FF43
:10072800324616212046FFF7FCFE302217212046CC
:10073800FFF7F7FEA08B092809D8042809D8063046
:10074800072101F07BFF094801F0A6FC78E7282083
:10075800F6E71720F4E700BFA02E63009C2E0008E0
:10076800A92E0008B42E0008C92E0008D42E0008AF
:100778003621FFF7FBBE38B504460D4694F8203005
:100788001BB12046FFF7F4FFF8E72A462046BDE8EC
:1007980038400A21FFF7C5BEF8B505460E4695F85C
:1007A80020401CB12846FFF7E3FFF8E7771C17F84D
:1007B800142016F8141028460134FFF7B2FE142C42
:1007C800F5D1F8BD3D21FFF7D1BE3521FFF7CEBEEB
:1007D80038B504460D46FFF7F5FF94F82030102B86
:1007E8000AD02046FFF7C4FF3A212046FFF7BEFE95
:1007F80034212046FFF7BAFEA56238BD2DE9F04145
:100808004FF00108C38A1746C26808FA03F3536118
:1008180004460D46FFF734FE064630B12046FFF782
:100828003DFE46463046BDE8F08104F104087F21CC
:100838004046FFF74DFD2F44BD4205D0404615F810
:10084800011BFFF745FDF7E72046FFF727FEE9E71D
:10085800F7B504461F460D461646FFF7B3FF94F852
:100868002030102B0BD034212046FFF77FFE0023C9
:100878000093009B352B02D8009B0133F8E72046F4
:10088800FFF7A3FF00230193019B0B2B02D8019BC9
:100898000133F8E72046FFF795FF94F82030202B26
:1008A80008D1324629462046A76203B0BDE8F04089
:1008B800FFF7A4BF0248FFF75BFF03B0F0BD00BF1E
:1008C800080200202DE9F7430E46904678210DF1E5
:1008D800070204461F46FFF7F9FD90B99DF9073056
:1008E800002B0EDA4FF00109E38AE26809FA03F3F4
:1008F80020465361FFF7C4FD054620B12046FFF7A7
:10090800CDFD012527E004F10409FF214846FFF742
:10091800DFFC3744BE424FF00001484606D0FFF7DF
:10092800D7FC8DF8070006F8010BF3E7FFF7D0FCBA
:1009380000218DF807004846FFF7CAFC2046FFF75C
:10094800ADFDB8F1000F06D020469DF80710FFF75F
:10095800B1FD88F80000284603B0BDE8F083000028
:1009680030B5114B11491A680879D368C0B143F002
:100978000203D3606C2342F6E0340968556A4B439E
:1009880003F5A273AB4201D82344FBE74AF67F7410
:10099800A34298BF5363064BC9B21970587130BD52
:1009A80023F00203D360FAE7F403002000020020DA
:1009B800E803002038B52C4C082321462B48A21DFB
:1009C800FFF780FF2A4D00283AD1E379CA2B37D1A7
:1009D800284B62781B689A4224DAA378032B21D823
:1009E800254B61781A78914208D361781A78914238
:1009F80018D1224AA1781278914213D26278D2B2E1
:100A08001A70A3781D4A0133DBB2137000231C4A05
:100A180013601C4A1361B4F803302A6835335362F3
:100A2800FFF79EFF2378672BDAB209D8164B607957
:100A3800D3F8A03103EB42014870012103F81210EA
:100A48002B685A6A42F6DF339A4208D80F4907489A
:100A5800FFF7BEFE4FF400420D4B5A6138BD3621F8
:100A68000248FFF783FDF5E7E003002008020020B5
:100A7800F403002000020020F8030020F003002007
:100A8800DC0300200040014034020020BD090008BA
:100A98000008014008B5084B1B685A6A42F6DF3364
:100AA8009A4203D805490648FFF792FE4FF40042E0
:100AB800044B5A6108BD00BFF4030020BD090008BB
:100AC800080200200008014010B5044636212046DF
:100AD800FFF74CFD88B994F82030002BF6D133216C
:100AE8002046FFF743FD40B93D212046FFF73EFD74
:100AF80094F820000028F7D110BD0120FCE7000081
:100B0800202310B583F311882E4B1C69DA68144032
:100B18000022A1071A611CD54FF40042A3F56053C7
:100B28001A612948FFF7D0FF284B29491B7808226A
:100B3800DBB24B70274B24481B78DBB28B70264BFB
:100B48001B685B6AA1F80330244BFFF781FEFFF7AF
:100B580007FF620703D536211B48FFF707FDE307A8
:100B680029D54FF400621E4B1E4C1F491A61627949
:100B780091F8A401904205D081F8A42112483E21A1
:100B8800FFF7CFFC194A13680133042B136005D90A
:100B980022780E4B1A7000220E4B1A700A48FFF783
:100BA80093FF13490848FFF713FEFFF7D9FE4FF4E8
:100BB80000620B4B5A61002383F31188BDE8104093
:100BC80002F014B80040014008020020F803002099
:100BD800E8030020F0030020F40300209D0A000829
:100BE800000C01400002002034020020DC03002039
:100BF800BD090008F8B5404E404CB369404843F081
:100C08000403B361636823F070436360636843F06F
:100C180080536360B36943F00803B361394B5A6882
:100C280022F470425A605A6842F480525A60FFF7C0
:100C3800C1FC054600285CD1334F08220621304804
:100C4800FFF76FFC02212E48FFF795FD7A793E21C8
:100C58002B48FFF766FC7A792C4B2D49284883F8F6
:100C6800A421FFF799FDCA222A4BDA713A782A4B58
:100C78002A4F1A702A4B38461D7000F037FD4FF680
:100C8800F872B369182043F00403B361E36823F0F2
:100C98000803E360236823F470432360236843F464
:100CA800004323603B6899680A4042F007029A6053
:100CB8004FF68F7299680A4042F060029A600222E9
:100CC8009A624AF68072DA6242F6E0329A63DA6829
:100CD800042142F00102DA60DA6842F00402DA60C4
:100CE80001F0ACFC3A68136843F00103136028462E
:100CF800F8BD0125FBE700BF0010024000080140D5
:100D080008020020000C01400002002034020020EC
:100D1800EC2E0008E8030020F8030020F40300206C
:100D2800F0030020174A184B18481360184B19494C
:100D38005360A3F52053C2E90233936104239383DC
:100D48000023C2E9040193771349144882F820303C
:100D580053629362124A08611846114602F813005A
:100D68000133682BFAD100200D4A013B82F8D000EC
:100D780002F10202F9D10B4B0B4AC1F8A0111A601B
:100D8800704700BF08020020E82E00080500060092
:100D980000300140070002004C080020B1040008A0
:100DA80034020020F4030020004001401D4B07B529
:100DB8001B6A59680A6822F00F020A60597B1A6890
:100DC8000E238B405360184A936823F00103936005
:100DD800202383F3118805238DF80530134BD3F8AE
:100DE800AC20002A18DD0021013AC3F8AC20D3F862
:100DF800942002F10800C3F89400117051709170AA
:100E0800D1700199516003F190029042084828BFBF
:100E1800C3F8943001F030FD002383F3118803B048
:100E28005DF804FBFC03002000240140200400209E
:100E3800B80400201022036A5B68D8605A6040F248
:100E480082521A601A6842F001021A60044B9A68CA
:100E580042F001029A609A6842F480029A607047F0
:100E680000240140CA0010B502F10803541CA34233
:100E780034BF01230823134400EB011100EB4300A6
:100E8800002331F8022B81421344FAD1D80810BD4F
:100E9800054B0139DA6A22F47002DA62DA6A42EA48
:100EA8000152DA62704700BF00240140092901EBB2
:100EB800410010B54FF007010B4B09D81C69814060
:100EC80024EA01011961196982400A431A6110BDB7
:100ED800DC681E38814024EA0101D960D968824063
:100EE8000A43DA60F3E700BF00240140062910B581
:100EF8000FD81F24194B0139586B01EB81018C4025
:100F080020EA04005863586B02FA01F1014359635F
:100F180010BD0C290FD81F24104B0739186B01EB93
:100F280081018C4020EA04001863186B02FA01F171
:100F380001431963ECE71029EAD81F24074B0D3940
:100F4800D86A01EB81018C4020EA0400D862D86A93
:100F580002FA01F10143D962DAE700BF0024014037
:100F68000F4B82B09A6842F001029A600022019207
:100F7800019A072A02D8019A0132F8E79A6842F0E2
:100F880008029A60064B19469A681207FCD49A68B8
:100F980042F004029A608B685B07FCD402B0704789
:100FA8000024014038B5274B10215A68054622F421
:100FB80040425A609A69012442F400729A619B691E
:100FC800214B9A6842F001029A609A6842F41E0224
:100FD80042F480729A605A6842F480725A60FFF74D
:100FE80057FF05220121FFF761FF21460134012245
:100FF8002846E4B2FFF77AFF092CF6D10522112121
:101008002846FFF753FF2146013411222846E4B24F
:10101800FFF76CFF112CF6D12846FFF7A1FF00233C
:101028000A4A18460F2101F0B1FE094A43682862AE
:101038009A6040F282521A60034A936823F00103CF
:10104800936038BD0010024000240140B50D00082F
:101058004C2401400269036803EB8203196370475B
:1010680008B500212C30FFF7F5FF08BD2DE9F8433E
:10107800DFF8B88003250027C1462B4CD8F8183074
:101088007F0043F00803C8F818300123E268AB403A
:101098001343072DFFB2E360EEB22AD80F210823CD
:1010A8002268A800814022EA010222602268834067
:1010B800134323600A2001F0EEFC0123A268AB4031
:1010C8001342D9F8183008BF47F0010743F0080366
:1010D800072DC9F818301CD80F222368A9008A40A8
:1010E80023EA0203236001350A2DC7D13846BDE83B
:1010F800F8830F21B300203B6268DBB2994022EAF3
:10110800010262600822616802FA03F30B4363601C
:10111800D0E70F22B600203E6368F6B202FA06F660
:1011280023EA06066660DEE7000C01400010024074
:1011380070B50F490446006D00F064FE30B92368AD
:101148000C495B682046BDE8704018470A49206D85
:1011580000F058FE236840B95D682046AC46BDE8FB
:101168007040064B064A074960475B680649E9E74D
:10117800142F0008192F00081E2F0008262F00081A
:10118800342F00083C2F0008432F000870B542F2A6
:1011980010744C434FF47A7104F2E734B4FBF1F461
:1011A80003690546061DA4B213B1304601F0D8FC08
:1011B8002B4621463046BDE87040014A01F08CBC00
:1011C800C516000838B5C26990F848305179044608
:1011D8008B422AD0D2F801502C304DB9FFF73AFF94
:1011E800E3695A7984F848200633E361002018E05F
:1011F8008B4217D2013384F8483094F84810FFF72F
:1012080029FFE36994F8482059799142ECD0D3F842
:1012180001100432B1FBF2F120460131FFF7B6FFAD
:10122800012038BDE9D9013BE5E70632C261DDE7B7
:10123800202208B582F311884FF0FF320368C0E915
:1012480006111B6802629847002383F3118808BDC2
:10125800002583B52C4C04F1980620238DF8055001
:10126800009583F311884FF6FF71304601F0E8FAD4
:10127800A0B9D4F89020254802F10803C4F89030AA
:10128800834228BF23461168143000915268C4F87D
:101298009030019201F0F0FA01F0C2FA85F311885A
:1012A8009DF80530022B0CD0052B12D0012BD4D180
:1012B800009F3846FFF73CFF3B6838461B68984755
:1012C800CBE74AF6AA22124B12481A60FFF7B2FD82
:1012D800C3E700210F48FFF7C5FD012107460D4868
:1012E800FFF7C0FD4FF496637B4340F6AB52B3FB68
:1012F800F0F3B2EB430FB0D30748084983698B4238
:10130800ABD0FFF795FFA8E720040020B004002029
:1013180000300040FC030020D0040020FE2F00080D
:1013280007B541F2941000F0E3FB00F0C9FB00237D
:1013380008211A464A4800F091FC494800F0E4FBAD
:1013480001F025F901F0A8FA0122464C464B12217A
:1013580004F1A4001A70C4E9244401F06CFA0021D5
:1013680004F1980001F067FA404801F037F84FF0AF
:1013780000723F4B5A60FFF779FE3E4A00F1320394
:10138800517910790329136052D0082952D00D29B8
:1013980052D0172952D01D2952D0262952D0372988
:1013A80052D0502952D0862952D0CD2952D0C529A1
:1013B80052D0314A314CC02918BF22463049314CED
:1013C800CDE90002304A314800F066FE244800F0BA
:1013D800F5FB04F12C0000F0E9F9E16C04F12C00B4
:1013E80000F024FC002104F12C00FFF733FE284A0A
:1013F8002848936943F004039361A2F58432136883
:1014080023F0F0031360FFF7CDFD2348FFF7F2FB4D
:1014180020BB22492046FFF70BFF202383F31188C6
:101428001F4800F0B9FC002383F31188FFF710FF71
:101438001C4AC3E71C4AC1E71C4ABFE71C4ABDE770
:101448001C4ABBE71C4AB9E71C4AB7E71C4AB5E780
:101458001C4AB3E71C4AB1E71C4AAFE71C49D9E765
:10146800400800202004002020050020400500201E
:101478000000014000020020572F00089A2F0008A2
:10148800342F0008D0040020262F0008A02F0008C1
:1014980000100240FC030020340200201C30000829
:1014A800240500205E2F0008652F00086C2F000817
:1014B800732F00087A2F0008812F0008882F000852
:1014C800522F00088E2F0008942F0008502F000874
:1014D800D42F000808B5D0F8AC30002B19DD013B3B
:1014E800C0F8AC30D0F8943003F10802C0F894206A
:1014F8000A681A604A685A60D0F8942000F190038C
:101508009A4228BFC0F89400983001F0B5F900203D
:1015180008BD0220FCE7000038B50369044613B192
:10152800043001F01DFB4FF0FF35E3691A78042AF7
:10153800FDD8DFE802F0030A1425310023682046AD
:101548009B6898470128F0D138BDD3F801100633BD
:10155800E3610029E9D02046FFF718FEF4E70621E9
:10156800D3F80130A26901FB0323E36194F8293021
:1015780023B1124804F12401FFF7ACFF0121EAE787
:1015880094F8293023B10D4804F12401FFF7A2FF94
:101598000023C4E90633D7E7226A013204BFD3F82F
:1015A80001202262226A1AB906332562E361BCE788
:1015B800A369013AE3612262B7E700BF2004002073
:1015C80000200021314B70B5C3E900014FF4E1312F
:1015D8002F4AC3E924332F4B0326C2E90013A3F58E
:1015E8004053936013610A23938204239220C2E933
:1015F80006634FF485530921C2E90803264B9181FC
:10160800DA6003F11002C3E984220122002483F87E
:10161800182283F87C22214A214D1A6002F1280100
:101628003832C3F88012C3F8842221461C22C3E949
:101638000144C3E98744C3F82442C3F8C842A3F865
:10164800D242C3F8CC4283F8D042C3F8D442281D12
:1016580001F00BFC134A14492A60144A4FF0FF3377
:10166800C5E90B21C5E90E26FF22C5E908346A64DD
:10167800EB640F4A0F4B85F829401A600E4AAC8676
:101688009A61A5F8404085F8484070BD20040020C4
:10169800180800200038014040050020D03000081C
:1016A800D0040020C82F0008000C014000040040AE
:1016B800C03000082405002006270201202208B5B2
:1016C80082F3118803681B689847002383F3118805
:1016D80008BD0000044B5A6A42F001025A625A6A75
:1016E8009207FCD5704700BF001002400368264AE5
:1016F800934206D1254B9A6942F400629A619B692C
:101708007047B3F1804F07D103F50433DA6942F02B
:101718000102DA61DB6970471D4A934204D11B4B11
:10172800DA6942F00202F4E71A4A934204D1174BED
:10173800DA6942F00402ECE7174A934204D1134BEA
:10174800DA6942F01002E4E7144A934204D10F4BDD
:10175800DA6942F02002DCE7114A934204D10B4BCC
:101768009A6942F48032C9E70E4A934204D1074B82
:101778009A6942F40032C1E70B4A9342C0D1034B45
:101788009A6942F48022B9E7002C01400010024017
:101798000004004000080040001000400014004011
:1017A80000400140004401400048014010B5014696
:1017B800FFF79CFF4FF4404203685A641A6842F0EE
:1017C80080021A608269DA62027D0069012A00F1EA
:1017D800FF300CBF0722062203280BD8DFE800F0F1
:1017E80002323A42986940EA02129A611A6A42F051
:1017F80001021A621A68486842F001021A602F4A08
:101808000B899042497D02F5843233D1946944F0C2
:10181800040494619469072B44F0010494614FEA2D
:10182800810242F009023AD80F249B000168DBB21A
:101838009C4021EA04010160016802FA03F30B43AA
:10184800036010BD986940EA02329A611A6A42F050
:101858001002CEE7D86940EA0212DA611A6A42F445
:101868008072C6E7D86940EA0232DA611A6A42F43D
:101878008052BEE7124CA04203D1946944F0080498
:10188800C7E7104CA04203D1946944F01004C0E7A4
:101898000D4CA042BED1946944F02004B9E70F244E
:1018A800083B9B004168DBB29C4021EA040141608F
:1018B800416802FA03F30B434360C2E700080140A2
:1018C800000C01400010014000140140074B013892
:1018D8005A6922F080025A6110F8012F22B1196862
:1018E8000906FCD55A60F7E7704700BF0038014089
:1018F80008B50248FFF7EAFF01BEFEE72E300008F0
:1019080008B5202383F31188094B1B6853B1984706
:101918000122084B5A61002383F31188BDE808406F
:1019280001F064B90449054800F0CEFBF0E700BFB8
:101938004C080020000401403A30000843300008F9
:1019480008B5202383F31188094B5B6853B1984786
:101958000222084B5A61002383F31188BDE808402E
:1019680001F044B90449054800F0AEFBF0E700BFB8
:101978004C080020000401405130000843300008A2
:1019880008B5202383F31188094B9B6853B1984706
:101998000422084B5A61002383F31188BDE80840EC
:1019A80001F024B90449054800F08EFBF0E700BFB8
:1019B8004C080020000401405A3000084330000859
:1019C80008B5202383F31188094BDB6853B1984786
:1019D8000822084B5A61002383F31188BDE80840A8
:1019E80001F004B90449054800F06EFBF0E700BFB8
:1019F8004C08002000040140633000084330000810
:101A080008B5202383F31188094B1B6953B1984704
:101A18001022084B5A61002383F31188BDE808405F
:101A280001F0E4B80449054800F04EFBF0E700BFB8
:101A38004C080020000401406C30000843300008C6
:101A480008B5202383F31188094B1B685BB19847BD
:101A58004FF47872074B5A61002383F31188BDE86D
:101A6800084001F0C3B80449044800F02DFBEFE733
:101A78006408002000040140753000084330000865
:101A880008B5202383F31188094B1B685BB198477D
:101A98004FF47C42074B5A61002383F31188BDE859
:101AA800084001F0A3B80449044800F00DFBEFE733
:101AB80060080020000401407E3000084330000820
:101AC8007047000045F25553084A136006235360D7
:101AD80028235843B0F5801F28BF40F6FF704AF608
:101AE800AA2338BF000A9060136070470030004096
:101AF80008B5FFF7EFFDFFF7E5FF4CF6CC42014BC9
:101B08001A6008BD00300040264BF0B503F11007FD
:101B180004463E4687B002AD2A461868596808331D
:101B280003C2BB421546F7D16B46306871681E4A3E
:101B380003C35368C3F38103012B2ED0022B2ED18C
:101B480053685168C3F38343C80303F102031DD4E8
:101B580016494B43516806A8C1F30311014411F813
:101B6800101CCB40236051685268C1F30221C2F3B4
:101B7800C2220144024411F8181C12F8182C23FA46
:101B880001F1D3406160A36007B0F0BD51688903DB
:101B980001D50749DDE70749DBE7064BDAE7064BDE
:101BA800D8E700BF842E00080010024000093D005D
:101BB800808D5B00001BB70000127A0006480749B9
:101BC800836805C8B3FBF1F3B2FBF1F2B0FBF1F1A6
:101BD800034800F061BA00BF4008002040420F00EF
:101BE800873000080D4B0E4A99420E4B0AD00E481A
:101BF800814207D000F58060814203D000F5806003
:101C0800814206D15268986812F4005F18BF4000FC
:101C180070475268586812F4806FF7E7002C01404B
:101C280000100240400800200040014038B5054639
:101C38000C4601680848FFF7D5FF2B68DA6A0132BD
:101C4800B0FBF2F0B0FBF4F2A04228BF02F1FF3281
:101C58009A6200225A6238BD4008002010B5074C2D
:101C6800606820F47F5020F0300040EAC32040EA4A
:101C7800022040EA0110606010BD00BF0010024061
:101C880070B50068294D049CA84238D105F5604517
:101C9800AE6946F48056AE61AD694FF441750129CD
:101CA800056002BF016841F080010160012A02BF9E
:101CB800026842F002020260012B02BF036843F08F
:101CC80001030360194B9842194B0CBF9B685B6872
:101CD800B3FBF4F3802B1DDC402B1DDC202B1DDC1B
:101CE800102B1DDC082B1DDC042B1DDC022BD4BFA4
:101CF80000230123026842EAC303036070BD0D4D4F
:101D0800A842CAD105F5EC35EE6946F48046EE6185
:101D1800ED69C2E70723EDE70623EBE70523E9E7CB
:101D28000423E7E70323E5E70223E3E70030014064
:101D3800400800200038004008B5202383F31188AC
:101D4800074B9B68DB0703D5064B1B6803B1984715
:101D5800002383F31188BDE8084000F047BF00BFA7
:101D6800003001406808002008B5202383F311885B
:101D7800074B9B68DB0703D5064B1B6803B19847E5
:101D8800002383F31188BDE8084000F02FBF00BF8F
:101D9800003800406C08002073B5058B04464DB927
:101DA800837E69460A4800958DF80530FFF792FB57
:101DB80002B070BD0369061D13B1304600F0D0FEB5
:101DC800234629463046034A00F086FEF0E700BF66
:101DD80020040020C516000813B500220446837E9F
:101DE800694607488DF805300092FFF773FBE37EDC
:101DF800012B02D12046FFF7CFFF02B010BD00BF74
:101E080020040020884230B515D0431E13F8014F36
:101E18002046A4F14102192A11F8012B98BF04F1B8
:101E28002000A2F14105192D98BF2032801A01D156
:101E3800002CEBD130BD0020FCE770B508B9106864
:101E480068B103460E46184613F8014B16F8015BB5
:101E580015B1AC42FAD1F5E72CB92046146070BD33
:101E680023460CE015B90E4613F8014B16F8015B32
:101E7800AC42F7D1002CF3D0002103F8011C136009
:101E8800EDE703461A46117801330029FAD1101AF2
:101E980070472DE9F04385B0984601AB064600250A
:101EA80008461F469DF83090B0FBF2F4844602FBCA
:101EB800140120460929CCB294BF30343734E4B237
:101EC800944505F1010503F8014BEDD22C46336822
:101ED80044451B680BD249463046984718B10C2038
:101EE80005B0BDE8F0830134F1E7002DF8D0336880
:101EF800013D30461B68795D98470028F5D0EEE72C
:101F08002DE9F04F0B46054614464FF00A0B85B0F5
:101F18001E4616F8011B31B928462B685B6805B0C8
:101F2800BDE8F04F1847252902D02B681B6864E0EC
:101F38005F784FF00008302F14BF20279E1C16F83A
:101F4800011BA1F13000C0B2092804D92A2905D102
:101F580054F8040BC0B20BFB0808F0E72E2909D18E
:101F680016F8011BA1F13003092BF9D92A2901D14F
:101F78000434F5E763293BD015D8412966D003D846
:101F88002529D2D03346C3E7532939D05829F9D166
:101F9800434610220097284654F8041BFFF779FFA0
:101FA8000028EFD0B8E773292AD01BD8642901D0BC
:101FB8006929E7D1A14659F8044B002C07DA2B68A8
:101FC8002D2128461B6898470028A5D1644243461E
:101FD8000A22214628460097FFF75BFF00289BD17D
:101FE8004C46CFE77529CDD143460A220097D2E760
:101FF8002B6854F8041B1B68C9B228469847CFE7DA
:10200800D4F800904846FFF73CFF824609F1FF39B3
:10201800B9F1FF3F09D019F8011F31B12B682846E3
:102028001B6898470028F3D076E7A8EB0A08B8F1B0
:10203800000F01DC0434A5E72B68394628461B68E5
:10204800984708F1FF380028F1D065E70027D4E960
:10205800019823685FFA88FA03934F4501DB0C3433
:1020680090E76FB9039B1022D95D3023284600936F
:102078000223FFF70EFF00287FF44EAF0137ECE78D
:10208800B8F1000FEED02B68514628461B689847D8
:102098000028E7D040E700000FB407B504AB53F8B9
:1020A800041B0193202383F311880648019AFFF744
:1020B80027FF002383F3118803B05DF804EB04B015
:1020C800704700BFC00700200FB407B504AA52F834
:1020D800041B04480192FFF713FF03B05DF804EBFB
:1020E80004B07047C00700207047012070470120E6
:1020F80070470120704701207047000008B5064C62
:1021080040F2DE3000F0C7FC20680028F8D00368F1
:102118005B689847F4E700BF900900200EB403B548
:1021280003AA52F8041B00F520700192FFF7E8FE9D
:1021380002B05DF804EB03B07047A0F52170EDE73D
:10214800104B984205D1104A936943F004039361F8
:1021580070470E4B984204D10B4A936943F0080329
:10216800F5E70B4B984204D1074A936943F01003F3
:10217800EDE7084B9842EBD1034A936943F02003FB
:10218800E5E700BF0008014000100240000C0140D4
:102198000010014000140140D0F81022D0F81C12A1
:1021A80000F504739B1A8B4228BF0B46C0F82032F7
:1021B8007BB1002380F8183243685B68DA60D0F896
:1021C80020225A60C268126A1A601A6842F0010234
:1021D8001A607047436859680A6822F00F020A605B
:1021E800597B1A680E238B405360D0F81022D0E92F
:1021F80087310A445B1A00F504718A4228BF00F14E
:102208001002C0F81C32C0F810222BB9012380F844
:10221800183203681B681847FFF7BEBFFFF7DABF1D
:10222800D0F81C32B3F5007F16D2D0F814325A1CFD
:10223800C0F814221970D0F8142200F504739A42D9
:1022480024BF00F11003C0F81432D0F81C32013357
:10225800C0F81C32002070470C207047FFF7E0BF21
:10226800A0F52070FAE790F818320BB1FFF794BF89
:102278007047FFF7F8BFA0F52070FAE78368D0F839
:1022880024225B685B68C3F154039B1A48BF54332C
:1022980083B1531CC0F82432024492F828320B70E0
:1022A800D0F82432532B4FF0000301DDC0F824325C
:1022B800184670470B2070477FB590F87C3204466B
:1022C800002B4FD000254FF0804620460DF1070126
:1022D800FFF7D4FF002845D194F8D0329DF80720A5
:1022E80043B9B4F8D212736A5B1A40F2DE319BB27A
:1022F8008B4203D984F8D052C4F8CC52736A082AA6
:10230800A4F8D232D4F8CC3205D1002BDDD0013B71
:10231800C4F8CC32D9E70D2A01D00A2A24D1002BDF
:10232800D3D00025234483F88852204904F532721B
:1023380004F52270FFF781FD0123C4F8D40284F864
:10234800D0328DF80D3084F87C52202383F3118825
:10235800174BD3F8AC20AA420FDC00F061FA002337
:1023680083F3118804B070BD3E2BAED8591C2344AA
:10237800C4F8CC1283F88822A7E7013AC3F8AC2046
:10238800D3F89420039802F1080104F52174C3F8E6
:1023980094101460506003F190029142054828BFE0
:1023A800C3F8943000F068FAD7E700BFC4300008DB
:1023B80020040020B8040020C268D2E90013054AAE
:1023C8009342054A0CBF92685268B2FBF1F29A60D8
:1023D800704700BF0038014040080020C36837B587
:1023E800044698689989FFF7ABFE584B07299A6904
:1023F80042F001029A6179D80F2589000268C9B2B2
:102408008D4022EA050202600922056802FA01F1FC
:1024180029430160E2684E4952688A4276D19A6936
:1024280042F480429A619B692046FFF7C5FF00226B
:10243800E0680921436880691A612346454A00F02B
:10244800A5FCE36841685A686060101D8860186AD6
:10245800012508600C2184F81852D160C021186940
:102468005161998AFFF76CFEC3688D401D430729A7
:10247800C5605BD80F2289000368C9B28A4023EA85
:10248800020303600823026803FA01F111430160A3
:102498000023E0681A460921C06900F077FCE1686A
:1024A80043684A68A060101D986004F50A70D860F7
:1024B8005420496A58601960196841F0010119608F
:1024C800D36843F40053D360234B1A6802B91C60E5
:1024D800224C236843B9009380224FF49071204B1B
:1024E800204800F0A3FA206003B030BD0F2508395A
:1024F80089004268C9B28D4022EA05024260092279
:10250800456802FA01F12943416083E716498A4286
:1025180005D1DA6942F40032DA61DB6984E71349EC
:102528008A4281D1DA6942F48022F5E70F2208391C
:1025380089004368C9B28A4023EA0203436008233A
:10254800426803FA01F111434160A1E7001002401B
:102558000038014025220008900900209409002035
:102568000521000870080020004400400048004091
:10257800202383F31188012380F87C32002383F31E
:1025880011887047FFF7F4BFA0F52170FAE708B586
:1025980000F07CFBBDE8084000F000B800F024B86B
:1025A8004FF08043002258631A610222DA607047B4
:1025B8004FF080430022DA6070474FF08043586341
:1025C80070474FF080431A6910B5920708D5002468
:1025D8001C61202383F3118800F0A6F984F3118885
:1025E800BDE8104000F002BB114B0221DA691C2043
:1025F80042F00102DA610F4ADB69536843F4006371
:1026080053600D4B5A6842F21073B2FBF3F24FF06D
:102618008043013A9A624FF6FF72DA6200229A61A9
:102628005A63DA605A6001225A611A6000F006B8EB
:1026380000100240002004E04008002001220901A7
:1026480000F1604303F56143C9B283F8001300F059
:102658001F039A4043099B0003F1604303F561435C
:10266800C3F880211A6070470022024BC3E9003387
:102678009A607047D8090020002382680375054BCB
:102688001B6899689142FBD25A68036042601060E7
:1026980058607047D809002008B5202383F31188B3
:1026A800027D0023052A06D8DFE802F00B050503A2
:1026B800120E826913604FF0FF338361FFF7DCFF6E
:1026C800002383F3118808BD8269936801339360FE
:1026D800D0E9003213605A60EDE7000000238268F9
:1026E8000375054B1B6899689142FBD85A680360CB
:1026F8004260106058607047D809002038B50C4C0B
:1027080025692268287511684C60216001212261C1
:102718001175EFF309822969243A914202D90548D3
:1027280000F0FCF829462069BDE83840FDF71CBDDB
:10273800D8090020183100084FF6FF7330B59942C8
:1027480004460B4D87B010D02B690A4A01A800F047
:10275800C3F92046FFF7D2FF049B13B101A800F08C
:10276800FFF92B69986907B030BDFFF7C7FFF8E795
:10277800D8090020A126000870B5114E816133697F
:1027880081689A680446914203D8BDE87040FFF713
:1027980073BF1846FFF7A2FF01230546346123756E
:1027A800EFF309830269243B9A4202D9054800F0F5
:1027B800B5F829462046BDE87040FDF7D5BC00BFF6
:1027C800D809002018310008044B1A681B69906862
:1027D8009B68984294BF002001207047D8090020C8
:1027E80038B50D4C236820691A68546022600122AC
:1027F8001A752361FFF772FF0546EFF30983026933
:10280800243B9A4202D9054800F088F829462069F5
:10281800BDE83840FDF7A8BCD809002018310008E9
:1028280008B5FFF7D1FF18B1BDE80840FFF7D8BFDA
:1028380008BDFFF7D5BFC0E9000081607047000000
:10284800826810B4541E002C846011DA21B98260A9
:102858004FF0FF3010BC7047064B42681B6910BC34
:10286800986118605A60136043600520FFF764BFE1
:102878000020EFE7D8090020826803460132002AC9
:10288800826007DC006802681A6053600023836175
:10289800FFF7F2BE7047FEE710B5184CFFF7E4FEED
:1028A80000F00EF980222046154900F083F8154BF8
:1028B80044F8140C036101230375134B134AD968B8
:1028C80021F4E0610904090C0A431149DA60CA6875
:1028D80042F08072CA600F490A6842F001020A6039
:1028E8001022DA77202283F82220002383F311882C
:1028F80062B6BDE81040084800F080B8FC09002026
:10290800273100080001002000ED00E00003FA056F
:10291800F0ED00E0001000E03431000872B6014B21
:102928001862FEE7D80900202DE9F84F0027B846BD
:102938001F4C656904F1140A4FF08043586AE38B11
:1029480080B22A89C61AB6B2B2421DD84FF0200901
:102958002B89E28BF61A1A442B68E2835345C3F895
:1029680004A0D5F80CB06361B6B2EF6001D1FFF7EF
:102978001FFE88F311882869D84789F3118865698B
:102988002B89B342E4D9D7E7626952450ED0118941
:10299800E0830B441B1A13812B89022B2CBFC01810
:1029A8000230BDE8F84F80B2FFF707BEBDE8F88FE8
:1029B800D80900208260022282827047D0E9012370
:1029C80043F8102CA3F1440243F8142C026943F88D
:1029D800442C426943F8402C074A43F8242CC26827
:1029E800A3F1200043F8182C022203F80C2C002233
:1029F80003F80B2C704700BF810100085521D0E96E
:102A0800013210B59A420DD8202383F31188FFF7BD
:102A1800D5FF00210446FFF7AFFE002383F311889A
:102A2800204610BD03F8011BECE7000070B5044612
:102A380055264518A5421CD8202484F3118820392E
:102A4800441844F8243C049BA4F1240144F8203C95
:102A5800094B206144F8043C0223E160A382002171
:102A68002046A260FFF788FE002383F311882046E2
:102A780070BD04F8016BDDE781010008024B1B699A
:102A880098610F20FFF73ABED8090020202383F36E
:102A98001188FFF7F3BF08B50146202383F3118897
:102AA8000820FFF749FE002383F3118808BD034679
:102AB800006820B100221A608161FFF7DDBD704710
:102AC800044B03F11402C3E905224FF6FF72DA61E1
:102AD800704700BFD8090020F8B5C0E903234FF0BC
:102AE80080430646586A1D4B02291A4652F8145F5D
:102AF80038BF022195421F4680B20BD1D8830844C3
:102B0800C3E9056680B2C6E900553181BDE8F840E1
:102B1800FFF746BDDB8B2A89C01A80B201448CB20C
:102B2800844203D2A41A2D68A4B205E0A24203D9B4
:102B3800181980B2FFF741FD2B89A3420CD36B68AB
:102B4800356073601E606E6034812B891C1B4FF6E4
:102B5800FF732C81BB83F8BDE41AE4E7D809002091
:102B68001C4910B40A4652F8144F036884420DD029
:102B780041680B600368596000219342C16003D02B
:102B88001A8901890A441A8110BC704700209342AF
:102B98004B615A60E06002D110BCFFF709BD18898B
:102BA8002289C98B104480B218814FF080435B6A38
:102BB8009BB25A1A92B29042E6D9CB1A03449BB2FE
:102BC800012B9CBF023290B2084410BC80B2FFF7C0
:102BD800F4BC00BFD8090020EFF30983203383F346
:102BE8000988002383F3118870470000202310B55B
:102BF80083F311880D4B5B6813F4006312D0EFF375
:102C080009844FF0807344F8043CA4F1200383F353
:102C18000988FFF7D9FD18B1054B44F8083C10BDE9
:102C2800044BFAE783F31188F9E700BF00ED00E0F1
:102C38009101000894010008704770477047FEE74B
:102C4800F0B5082000261049D1E901341D460A686C
:102C5800043AAC4210D8E21CD21ADD1E22F003025C
:102C6800AC4238BF00221344CA689A4209D80138D6
:102C780001F11001E8D1F0BD52F8047F45F8047B5A
:102C8800E7E743F8046BF0E74C3100084FF0FF31F9
:102C980008B50E4B1A6919611A6900221A61186978
:102CA800D868D960D968DA60DA68DA6942F080529F
:102CB800DA61DA69DA6942F00062DA61DB6900F048
:102CC80007F8BDE8084000F0CFB800BF0010024088
:102CD80000230121084A10B5C2E9003307484468B7
:102CE8001030236042F8313001310829F7D14FF014
:102CF800FF32034B5A6010BD98090020CC31000800
:102D08000000024006289C462DE9F04136D80127EC
:102D18001B4C874023681F4230D11A4E3B43236027
:102D28004FEA0018184B06EB0015013044F8302024
:102D380004EBC000C0F804C0586940F001005861B5
:102D48005B694AB16268AB681A4202D1E87BFFF757
:102D580075FC63681F43676006EB08014B68497B95
:102D68001A6856F8080022F00F021A600E228A40EC
:102D7800426000221A602846BDE8F0810025FAE783
:102D880098090020CC3100080010024010B520241A
:102D980084F31188FFF7B6FF002383F3118810BD71
:102DA80010B40468437B21684268D940126801F076
:102DB8000E010A420ED0827B01FA03F36360064BD0
:102DC800013253F832402CB103EBC2035868234652
:102DD80010BC184710BC70479809002008B5034874
:102DE800FFF7DEFFBDE80840FFF700BFCC31000861
:102DF80008B50348FFF7D4FFBDE80840FFF7F6BE63
:102E0800DC31000808B50348FFF7CAFFBDE80840F1
:102E1800FFF7ECBEEC31000808B50348FFF7C0FF28
:102E2800BDE80840FFF7E2BEFC31000808B50348DA
:102E3800FFF7B6FFBDE80840FFF7D8BE0C32000820
:102E480008B50348FFF7ACFFBDE80840FFF7CEBE62
:102E58001C32000808B50348FFF7A2FFBDE8084088
:102E6800FFF7C4BE2C320008704703460244934261
:0A2E780000D1704703F8011BF9E7D1
:102E84000000000000000000010203040607080916
:102E940000000000010203044343205273742046DF
:102EA40061696C0D0043432057204661696C0D0035
:102EB400434320522F57204661696C3B2072706C4B
:102EC4003D25750D0043432052204661696C0D0079
:102ED400434320696E6974206F6B0D00000000008D
:102EE40000000000710200080B0E0C00100E112FE0
:102EF4001273150021B62210191D1A1C1BC71C09B8
:102F04001DB023EA242A2500261F2C882D312E09E2
:102F140050696E67004F6B0D0A0056657273696FD6
:102F24006E0032303232303732355F303031380073
:102F3400486932322054780025532025530D00432C
:102F44006D64556E6B6E6F776E0D0A002B313064B5
:102F5400426D002B313264426D002D333064426D7A
:102F6400002D323764426D002D323564426D002DE0
:102F7400323064426D002D313564426D002D3130A4
:102F840064426D002D3664426D002B3564426D0041
:102F94002B3764426D003F3F64426D000D25532082
:102FA40025530D49443D25753B20547970653D25D5
:102FB400753B205077723D25530D00000000000042
:102FC400000000002115000869100008CD11000858
:102FD4000000000000FF01480000000000000000A5
:102FE4000000014800000000042D0000000000C2A1
:102FF4000100004803000000000000000000004839
:1030040001CF0000000000000000000001CF00001C
:10301400000002000000000000C2010000FF00C226
:10302400010000480300000000000D48617264467E
:1030340061756C740D00566563746F723538005594
:103044006E68616E646C65642025530D005665637B
:10305400746F72354300566563746F723630005670
:103064006563746F72363400566563746F723638F4
:1030740000566563746F72394300566563746F72EA
:10308400453000414842467265713D25754D487A88
:103094003B2041504231467265713D25754D487A59
:1030A4003B2041504232467265713D25754D487A48
:1030B4000D0000000000000000000000E11D0008F9
:1030C400202C00000000000000000000F120000897
:1030D400C1220008652200087B220008252100087F
:1030E400F3200008FB2000088D25000880FDFFFF69
:1030F40000000000692200087F2200087CFDFFFF19
:10310400000000009125000843210008F720000872
:10311400FF200008737461636B206F766572666CC0
:103124006F77006D61696E0069646C650000000072
:103134002C310008180A0020C80A002001000000F1
:103144009F2800080000000044320008C80A00203C
:10315400C80A0020C80A0020443200080000000009
:1031640000000000000000004432000800000000DD
:1031740000000000000000004432000800000000CD
:1031840000000000000000004432000800000000BD
:1031940000000000000000004432000800000000AD
:1031A400000000000000000044320008000000009D
:1031B400000000000000000044320008000000008D
:1031C400000000000000000000000240080002406F
:1031D400010000000000000B000002401C0002403F
:1031E400020000000004010C000002403000024014
:1031F400040000000008020D0000024044000240E8
:1032040008000000000C030E0000024058000240B9
:10321400100000000010040F000002406C00024087
:10322400200000000014051000000240800002404D
:08323400400000000018061123
:08323C000000000001CD0000BC
:040000050800016985
:00000001FF
