:020000040800F2
:1000000000010020690100086B0100085D10000874
:100010006B0100086B0100086B0100086B01000810
:100020006B0100086B0100086B0100084923000800
:100030006B0100086B0100086B0100086B010008F0
:100040006B0100086B0100086B0100086B010008E0
:100050006B0100086B0100086D100008AD1000086E
:10006000ED1000082D1100086D1100084D25000845
:100070006125000875250008892500089D250008D0
:10008000B1250008C52500086B0100086B010008B8
:100090006B0100086B0100086B010008AD1100083E
:1000A0006B0100086B0100086B0100086B01000880
:1000B000331D00086B0100086B0100086B0100088C
:1000C0006B0100086B0100086B010008A514000813
:1000D000D51400086B0100086B0100086B010008D3
:1000E000ED1100086B0100086B0100086B010008AE
:1000F0006B0100086B0100086B0100086B01000830
:100100006B0100086B0100086B0100086B0100081F
:100110006B0100086B0100086B0100086B0100080F
:100120006B0100086B0100086B0100086B010008FF
:100130006B0100086B0100086B0100086B010008EF
:100140006B0100086B0100086B0100086B010008DF
:100150006B0100086B0100086B0100086B010008CF
:08016000450800082D0D000800
:1001680016E000F000F8FEE72DE9F04FC1F80CD0DA
:10017800C3689D46BDE8F08F002383F311882846A5
:10018800A047002002F036F801F007FF00DFFEE785
:1001980072B6274880F30888264880F309882648DD
:1001A8004EF60851CEF200010860022080F3148850
:1001B800BFF36F8F02F0F4F802F0F3F84FF0553008
:1001C8001E491B4A91423CBF41F8040BFAE71C49FF
:1001D800184A91423CBF41F8040BFAE719491A4AF8
:1001E8001A4B9A423EBF51F8040B42F8040BF8E749
:1001F80000201749174A91423CBF41F8040BFAE71F
:1002080002F0D2F802F0CEF8134C144DAC4203DAE7
:1002180054F8041B8847F9E700F0F0FC104C114D26
:10022800AC4203DA54F8041B8847F9E702F0BBB87C
:10023800000100200002002000000008000000204B
:1002480000010020482900080002002008020020C0
:100258000802002028090020600100086801000841
:100268006801000868010008816A09B1836A1847B3
:10027800243001F0D0BF0000104B984205D1104A3D
:10028800936943F00403936170470E4B984204D17D
:100298000B4A936943F00803F5E70B4B984204D1E6
:1002A800074A936943F01003EDE7084B9842EBD1F6
:1002B800034A936943F02003E5E700BF00080140C3
:1002C80000100240000C01400010014000140140E1
:1002D8000368197303689A68D207FCD5187B7047BE
:1002E80010B5FFF7C9FF134A0729936943F00103C3
:1002F80093610ED80F2289000368C9B28A4023EAA5
:10030800020303600923026803FA01F11143016043
:1003180010BD0F22083989004368C9B28A4023EA10
:10032800020343600923426803FA01F11143416063
:10033800EEE700BF0010024001238288012903FA7A
:1003480002F30BD0022911D039B90A4A916819432E
:100358009160D16821EA0303D3607047054A916828
:1003680021EA03019160D1680B43F5E7014A9168DE
:100378001943F7E70004014070B50446A679006800
:10038800A588FFF779FF002E3DD00123C268AB4056
:10039800022E0CBF22EA030313430822C360072D71
:1003A80033D8AB000F250668DBB29D4026EA050569
:1003B8000560056802FA03F32B430360A0882568EB
:1003C8002A4E00F00302B542C0F387034FEA8202C7
:1003D8002AD101259B0003F1804303F580339E68F1
:1003E80005FA02F232439A600126214D86402B68B5
:1003F800204633432B606B6823EA06036B60FFF7E4
:100408009BFF6E6170BD0422C9E70F26083DAD0051
:100418004368EDB2AE4023EA06034360436802FA3C
:1004280005F51D434560C9E7124EB54207D19B004B
:1004380003F1804303F5803302259E68D0E70E4E12
:10044800B54207D19B0003F1804303F580330325B0
:100458009E68C5E7094EB542C6D19B0003F18043AB
:1004680003F5803304259E68BAE700BF000C0140FD
:100478000004014000100140001401400018014030
:100488000123428A81689340034A8868184002D051
:10049800013AFAD101207047B88201000123C18ACC
:1004A800C2688B40136170470148FFF7DDBE00BF8B
:1004B800080200202DE9F0414FF00108C38A1646D2
:1004C800C26808FA03F3536104460F46FFF7D8FFE2
:1004D800054630B12046FFF7E1FF45462846BDE80E
:1004E800F08104F1040847F080014046FFF7F0FE70
:1004F80000F0700084F8200029464046FFF7E8FE27
:1005080030702046FFF7CAFFE8E72DE9F0414FF0C9
:100518000108C38A1646C26808FA03F35361044601
:100528000F46FFF7ADFF054630B12046FFF7B6FF8F
:1005380045462846BDE8F08104F10408394640469E
:10054800FFF7C6FE31464046FFF7C2FE2046FFF7DA
:10055800A5FFEEE7F8B50127C38AC26807FA03F3D7
:10056800536104460E46FFF78BFF054628B1204627
:10057800FFF794FF3D462846F8BD3146201DFFF79A
:10058800A7FE84F820002046FFF788FF94F8203063
:1005980003F0700384F82030EDE700007FB50446CF
:1005A800C068E18AFFF768FE072940D80F22890052
:1005B8000368C9B28A4023EA020303600123026880
:1005C80003FA01F111430160218AA068FFF788FE50
:1005D800618AA068FFF784FEA18AA068FFF780FE01
:1005E800012104F11800FFF7C7FE2046FFF756FF68
:1005F8000023534A1946CDE90023201D1A4600F06E
:10060800F1FE626830211368204643F0400313600E
:10061800FFF7A0FFD8B162684A48136823F0400387
:10062800136001F0EBF80125284604B070BD0F22D5
:10063800083989004368C9B28A4023EA0203436043
:100648000123426803FA01F111434160BCE7072224
:1006580006212046FFF759FF08B13B48E1E78DF82E
:100668000F00062120460DF10F02FFF723FF054674
:1006780040B99DF80F60072E06D03146334801F087
:10068800BDF8D0E73248CCE73A212046FFF762FFB1
:1006980020220D212046FFF738FF25220E21204673
:1006A800FFF733FFED220F212046FFF72EFFA3228D
:1006B80013212046FFF729FFFF2214212046FFF7C8
:1006C80024FF082218212046FFF71FFF3246032186
:1006D8002046FFF71AFF3F2229462046FFF715FF5D
:1006E800062202212046FFF710FF0C223146204641
:1006F800FFF70BFF442208212046FFF706FF502290
:100708003E212046FFF701FF324616212046FFF71B
:10071800FCFE2A4617212046FFF7F7FEA08B092882
:1007280009D8042809D80630072101F03BFB0948FD
:1007380001F064F878E72820F6E71720F4E700BF0F
:10074800A02E630004260008112600081C260008B5
:10075800312600083C2600083621FFF7FBBE38B5D5
:1007680004460D4694F820301BB12046FFF7F4FFED
:10077800F8E72A462046BDE838400A21FFF7C5BEFB
:10078800F8B505460E4695F820401CB12846FFF7F7
:10079800E3FFF8E7771C17F8142016F8141028461A
:1007A8000134FFF7B2FE142CF5D1F8BD1D4A38B557
:1007B80093691D4843F0080393611C4B596821F461
:1007C80070615960596841F480715960916941F0CC
:1007D800080191615A6822F470425A605A6842F4DA
:1007E80080525A60FFF7DAFE0446C0B90822062193
:1007F8000F4D0D48FFF789FE02210B48FFF7AFFFA9
:100808003E216A790848FFF780FE6A79094B0A4950
:10081800054883F8A421FFF7B3FF204638BD01241B
:10082800FBE700BF0010024008020020000C014056
:10083800000200203402002054260008154A164BF6
:1008480016481360164B17495360A3F52053C2E9A5
:1008580002339361042393830023C2E9040193774D
:100868001149124882F8203053629362104A086195
:100878001846114602F813000133682BFAD10020FC
:100888000B4A013B82F8D00002F10202F9D1C1F80B
:10089800A011704708020020502600080500060035
:1008A8000030014007000200AC060020B104000837
:1008B80034020020CA0010B502F10803541CA342F8
:1008C80034BF01230823134400EB011100EB43005C
:1008D800002331F8022B81421344FAD1D80810BD05
:1008E8000269036803EB82031963704708B50021A6
:1008F8002C30FFF7F5FF08BD10B500211D48FFF7A4
:10090800D9FF012104461B48FFF7D4FF4FF4966135
:100918006143B1FBF0F149008BB2B3F5875F1DD29B
:1009280041F20D0293421BD840F6E162934219D876
:1009380040F6B552934217D840F6A742934215D8CD
:1009480040F6E522934213D905230B4A02EB8303B1
:100958009A780A48BDE8104000F050BF0023F4E739
:100968000123F2E70223F0E70323EEE70423ECE791
:100978000022EEE7DC030020122700087C2600088E
:1009880070B50F490446006D00F0EEFD30B92368DC
:100998000C495B682046BDE8704018470A49206D3D
:1009A80000F0E2FD236840B95D682046AC46BDE82A
:1009B8007040064B064A074960475B680649E9E705
:1009C800952600089A2600089F260008A7260008F2
:1009D800B5260008CB260008BD2600080025204CB7
:1009E80083B504F1980720238DF80550009583F30B
:1009F80011884FF6FF71384601F0D6FAA0B9D4F83D
:100A08009020184802F10803C4F89030834228BFA8
:100A180023461168143000915268C4F8903001924E
:100A280001F0DEFA01F0B0FA85F311889DF805307F
:100A3800022B0CD0052B0FD0012BD4D1009E3046B1
:100A4800FFF79EFF336830461B689847CBE74AF6A6
:100A5800AA22054B1A60C6E7FFF74EFFC3E700BF9F
:100A680000040020900400200030004070B542F2DD
:100A780010744C434FF47A7104F2E734B4FBF1F488
:100A880003690546061DA4B213B1304601F01CFCEB
:100A98002B4621463046BDE87040014A01F0D0BBE4
:100AA800290E000838B5C26990F8483051790446D3
:100AB8008B422AD0D2F801502C304DB9FFF710FFE5
:100AC800E3695A7984F848200633E361002018E086
:100AD8008B4217D2013384F8483094F84810FFF756
:100AE800FFFEE36994F8482059799142ECD0D3F895
:100AF80001100432B1FBF2F120460131FFF7B6FFD5
:100B0800012038BDE9D9013BE5E70632C261DDE7DE
:100B180008B5D0F8AC30002B19DD013BC0F8AC307B
:100B2800D0F8943003F10802C0F894200A681A60DB
:100B38004A685A60D0F8942000F190039A4228BF7E
:100B4800C0F89400983001F04BFA002008BD02204C
:100B5800FCE7000038B50369044613B1043001F01E
:100B6800B3FB4FF0FF35E3691A78042AFDD8DFE8B4
:100B780002F0030A14253100236820469B68984731
:100B88000128F0D138BDD3F801100633E3610029FC
:100B9800E9D02046FFF76AFFF4E70621D3F80130D1
:100BA800A26901FB0323E36194F8293023B11248B9
:100BB80004F12401FFF7ACFF0121EAE794F829309A
:100BC80023B10D4804F12401FFF7A2FF0023C4E973
:100BD8000633D7E7226A013204BFD3F80120226224
:100BE800226A1AB906332562E361BCE7A369013AB0
:100BF800E3612262B7E700BF0004002008B541F2B4
:100C0800941000F027FB00F00DFB002308211A4682
:100C1800364800F0D5FB354800F028FB01F06BF8AA
:100C280001F0EEF90122324C324B04F1A4001221FA
:100C38001A70C4E9244401F0B2F9002104F19800C3
:100C480001F0ADF92C4800F07DFF4FF000722B4BFE
:100C58002B495A602B4C2C4A2C4800F0CFFD2348D6
:100C680000F05EFB04F12C0000F052F9E16C04F195
:100C78002C0000F08DFB002104F12C00FFF730FE62
:100C8800234A2448936943F004039361A2F584320C
:100C9800136823F0F0031360FFF788FD2022054650
:100CA8004FF0FF33A8B982F3118823621A4B20460C
:100CB800C4E90633FFF74EFF85F31188202383F339
:100CC8001188164800F01AFC002383F31188FFF7F7
:100CD80085FE82F311882362114B2046C4E906334E
:100CE800FFF738FF002383F31188E7E7A006002009
:100CF800000400200005002020050020000001401D
:100D0800B5260008B0040020A7260008CA26000857
:100D180000100240340200202A27000804050020A1
:100D2800E826000800200021314B70B5C3E9000116
:100D38004FF4E1312F4AC3E924332F4B0326C2E98C
:100D48000013A3F54053936013610A23938204238D
:100D58009220C2E906634FF485530921C2E90803CA
:100D6800264B9181DA6003F11002C3E924220122A3
:100D7800002483F8982083F8FC20214A214D1A602A
:100D880002F128013832C3F80011C3F804212146C2
:100D98001C22C3E90144C3E92744C3F8A440C3F8AB
:100DA8004841A3F85241C3F84C4183F85041C3F875
:100DB8005441281D01F00DFC134A14492A60144AB5
:100DC8004FF0FF33C5E90B21C5E90E26FF22C5E91F
:100DD80008346A64EB640F4A0F4B85F829401A609F
:100DE8000E4AAC869A61A5F8404085F8484070BD27
:100DF800000400207806002000380140200500206B
:100E0800DC270008B0040020DC260008000C0140A4
:100E180000040040CC270008040500200627020132
:100E2800202208B582F3118803681B6898470023BD
:100E380083F3118808BD0000044B5A6A42F001028E
:100E48005A625A6A9207FCD5704700BF00100240E8
:100E58000368264A934206D1254B9A6942F40062F8
:100E68009A619B697047B3F1804F07D103F504334A
:100E7800DA6942F00102DA61DB6970471D4A934280
:100E880004D11B4BDA6942F00202F4E71A4A934292
:100E980004D1174BDA6942F00402ECE7174A93428F
:100EA80004D1134BDA6942F01002E4E7144A934282
:100EB80004D10F4BDA6942F02002DCE7114A934271
:100EC80004D10B4B9A6942F48032C9E70E4A934227
:100ED80004D1074B9A6942F40032C1E70B4A9342A6
:100EE800C0D1034B9A6942F48022B9E7002C014033
:100EF80000100240000400400008004000100040BC
:100F080000140040004001400044014000480140F6
:100F180010B50146FFF79CFF4FF4404203685A643E
:100F28001A6842F080021A608269DA62027D0069FA
:100F3800012A00F1FF300CBF0722062203280BD834
:100F4800DFE800F002323A42986940EA02129A61F8
:100F58001A6A42F001021A621A68486842F00102ED
:100F68001A602F4A0B899042497D02F5843233D1A9
:100F7800946944F0040494619469072B44F00104D3
:100F880094614FEA810242F009023AD80F249B008B
:100F98000168DBB29C4021EA04010160016802FAA1
:100FA80003F30B43036010BD986940EA02329A616B
:100FB8001A6A42F01002CEE7D86940EA0212DA61F2
:100FC8001A6A42F48072C6E7D86940EA0232DA61E6
:100FD8001A6A42F48052BEE7124CA04203D19469C7
:100FE80044F00804C7E7104CA04203D1946944F0C8
:100FF8001004C0E70D4CA042BED1946944F020040F
:10100800B9E70F24083B9B004168DBB29C4021EA0A
:1010180004014160416802FA03F30B434360C2E7ED
:1010280000080140000C014000100140001401407C
:10103800074B01385A6922F080025A6110F8012FD3
:1010480022B119680906FCD55A60F7E7704700BF56
:101058000038014008B50248FFF7EAFF01BEFEE785
:101068003C27000808B5202383F31188094B1B6827
:1010780053B198470122084B5A61002383F3118822
:10108800BDE8084001F066B90449054800F0CEFB08
:10109800F0E700BFAC060020000401404827000824
:1010A8005127000808B5202383F31188094B5B6892
:1010B80053B198470222084B5A61002383F31188E1
:1010C800BDE8084001F046B90449054800F0AEFB08
:1010D800F0E700BFAC060020000401405F270008CD
:1010E8005127000808B5202383F31188094B9B6812
:1010F80053B198470422084B5A61002383F311889F
:10110800BDE8084001F026B90449054800F08EFB07
:10111800F0E700BFAC060020000401406827000883
:101128005127000808B5202383F31188094BDB6891
:1011380053B198470822084B5A61002383F311885A
:10114800BDE8084001F006B90449054800F06EFB07
:10115800F0E700BFAC06002000040140712700083A
:101168005127000808B5202383F31188094B1B6910
:1011780053B198471022084B5A61002383F3118812
:10118800BDE8084001F0E6B80449054800F04EFB08
:10119800F0E700BFAC060020000401407A270008F1
:1011A8005127000808B5202383F31188094B1B68D1
:1011B8005BB198474FF47872074B5A61002383F369
:1011C8001188BDE8084001F0C5B80449044800F09A
:1011D8002DFBEFE7C4060020000401408327000828
:1011E8005127000808B5202383F31188094B1B6891
:1011F8005BB198474FF47C42074B5A61002383F355
:101208001188BDE8084001F0A5B80449044800F079
:101218000DFBEFE7C0060020000401408C27000802
:10122800512700087047000045F25553084A1360DB
:101238000623536028235843B0F5801F28BF40F683
:10124800FF704AF6AA2338BF000A906013607047FF
:101258000030004008B5FFF7EFFDFFF7E5FF4CF65B
:10126800CC42014B1A6008BD00300040264BF0B557
:1012780003F1100704463E4687B002AD2A461868B7
:101288005968083303C2BB421546F7D16B4630682C
:1012980071681E4A03C35368C3F38103012B2ED020
:1012A800022B2ED153685168C3F38343C80303F15B
:1012B80002031DD416494B43516806A8C1F3031114
:1012C800014411F8101CCB40236051685268C1F3E7
:1012D8000221C2F3C2220144024411F8181C12F878
:1012E800182C23FA01F1D3406160A36007B0F0BD68
:1012F8005168890301D50749DDE70749DBE7064B54
:10130800DAE7064BD8E700BFEC25000800100240DA
:1013180000093D00808D5B00001BB70000127A00B9
:1013280006480749836805C8B3FBF1F3B2FBF1F23D
:10133800B0FBF1F1034800F061BA00BFA00600203D
:1013480040420F00952700080D4B0E4A99420E4B5C
:101358000AD00E48814207D000F58060814203D050
:1013680000F58060814206D15268986812F4005FE7
:1013780018BF400070475268586812F4806FF7E74A
:10138800002C014000100240A0060020004001404F
:1013980038B505460C4601680848FFF7D5FF2B68A5
:1013A800DA6A0132B0FBF2F0B0FBF4F2A04228BFD7
:1013B80002F1FF329A6200225A6238BDA00600206C
:1013C80010B5074C606820F47F5020F0300040EAE8
:1013D800C32040EA022040EA0110606010BD00BF4F
:1013E8000010024070B50068294D049CA84238D10D
:1013F80005F56045AE6946F48056AE61AD694FF4B7
:1014080041750129056002BF016841F08001016052
:10141800012A02BF026842F002020260012B02BFE9
:10142800036843F001030360194B9842194B0CBF42
:101438009B685B68B3FBF4F3802B1DDC402B1DDC41
:10144800202B1DDC102B1DDC082B1DDC042B1DDCC8
:10145800022BD4BF00230123026842EAC3030360BE
:1014680070BD0D4DA842CAD105F5EC35EE6946F4BC
:101478008046EE61ED69C2E70723EDE70623EBE757
:101488000523E9E70423E7E70323E5E70223E3E786
:1014980000300140A00600200038004008B5202395
:1014A80083F31188074B9B68DB0703D5064B1B6842
:1014B80003B19847002383F31188BDE8084000F082
:1014C80049BF00BF00300140C806002008B52023EE
:1014D80083F31188074B9B68DB0703D5064B1B6812
:1014E80003B19847002383F31188BDE8084000F052
:1014F80031BF00BF00380040CC06002073B5058B13
:1015080004464DB9837E69460A4800958DF8053032
:10151800FFF7FEFA02B070BD0369061D13B130462D
:1015280000F0D2FE234629463046034A00F088FEE2
:10153800F0E700BF00040020290E000813B50022C0
:101548000446837E694607488DF805300092FFF708
:10155800DFFAE37E012B02D12046FFF7CFFF02B06E
:1015680010BD00BF00040020884230B515D0431ECE
:1015780013F8014F2046A4F14102192A11F8012B52
:1015880098BF04F12000A2F14105192D98BF20321F
:10159800801A01D1002CEBD130BD0020FCE770B5DA
:1015A80008B9106868B103460E46184613F8014B8F
:1015B80016F8015B15B1AC42FAD1F5E72CB9204613
:1015C800146070BD23460CE015B90E4613F8014BA4
:1015D80016F8015BAC42F7D1002CF3D0002103F8D8
:1015E800011C1360EDE703461A4611780133002900
:1015F800FAD1101A70472DE9F04385B0984601AB2F
:101608000646002508461F469DF83090B0FBF2F4C8
:10161800844602FB140120460929CCB294BF303419
:101628003734E4B2944505F1010503F8014BEDD2D6
:101638002C46336844451B680BD2494630469847C8
:1016480018B10C2005B0BDE8F0830134F1E7002D96
:10165800F8D03368013D30461B68795D984700280B
:10166800F5D0EEE72DE9F04F0B46054614464FF04E
:101678000A0B85B01E4616F8011B31B928462B689F
:101688005B6805B0BDE8F04F1847252902D02B68E4
:101698001B6864E05F784FF00008302F14BF2027E4
:1016A8009E1C16F8011BA1F13000C0B2092804D90C
:1016B8002A2905D154F8040BC0B20BFB0808F0E73F
:1016C8002E2909D116F8011BA1F13003092BF9D9EC
:1016D8002A2901D10434F5E763293BD015D84129DB
:1016E80066D003D82529D2D03346C3E7532939D049
:1016F8005829F9D1434610220097284654F8041B6C
:10170800FFF779FF0028EFD0B8E773292AD01BD854
:10171800642901D06929E7D1A14659F8044B002C66
:1017280007DA2B682D2128461B6898470028A5D181
:10173800644243460A22214628460097FFF75BFF8A
:1017480000289BD14C46CFE77529CDD143460A22C4
:101758000097D2E72B6854F8041B1B68C9B22846C7
:101768009847CFE7D4F800904846FFF73CFF8246F9
:1017780009F1FF39B9F1FF3F09D019F8011F31B15B
:101788002B6828461B6898470028F3D076E7A8EB13
:101798000A08B8F1000F01DC0434A5E72B683946C4
:1017A80028461B68984708F1FF380028F1D065E7FC
:1017B8000027D4E9019823685FFA88FA03934F4514
:1017C80001DB0C3490E76FB9039B1022D95D3023FD
:1017D800284600930223FFF70EFF00287FF44EAF40
:1017E8000137ECE7B8F1000FEED02B6851462846D8
:1017F8001B6898470028E7D040E700000FB407B5FA
:1018080004AB53F8041B0193202383F31188064883
:10181800019AFFF727FF002383F3118803B05DF8CF
:1018280004EB04B0704700BF200600200FB407B5D2
:1018380004AA52F8041B04480192FFF713FF03B0EF
:101848005DF804EB04B070472006002070470120C3
:101858007047012070470120704701207047000041
:1018680008B5064C40F2DE3000F0C9FC20680028BC
:10187800F8D003685B689847F4E700BFF0070020DA
:101888000EB403B503AA52F8041B00F58070019248
:10189800FFF7E8FE02B05DF804EB03B07047A0F56F
:1018A8008270EDE7104B984205D1104A936943F0D6
:1018B8000403936170470E4B984204D10B4A936915
:1018C80043F00803F5E70B4B984204D1074A9369A4
:1018D80043F01003EDE7084B9842EBD1034A9369B4
:1018E80043F02003E5E700BF000801400010024074
:1018F800000C01400010014000140140034653F859
:10190800902FD0F89C109B1A8B4228BF0B46C0F82A
:10191800A0307BB1002380F8983043685B68DA60B8
:10192800D0F8A0205A60C268126A1A601A6842F099
:1019380001021A607047436810B459680A6822F0B7
:101948000F020A60597B1A680E238B4001465360C8
:1019580051F8902FD0E9273422448A42A3EB04039C
:1019680028BF00F11002C0F89C30C0F8902033B9AD
:10197800012380F89830036810BC1B68184710BC16
:10198800FFF7BCBFFFF7D7BFD0F89C307F2B16D826
:10199800D0F894305A1CC0F894201970D0F89420CC
:1019A80000F190039A4224BF00F11003C0F894306C
:1019B800D0F89C300133C0F89C30002070470C20D0
:1019C8007047FFF7E1BFA0F58070FAE790F898300C
:1019D8000BB1FFF793BF7047FFF7F8BFA0F5807012
:1019E800FAE78368D0F8A4205B685B68C3F1540306
:1019F8009B1A48BF543383B1531CC0F8A430024427
:101A080092F8A8300B70D0F8A430532B4FF0000395
:101A180001DDC0F8A430184670470B20704700005D
:101A28007FB590F8FC300446002B4FD000254FF0CE
:101A3800804620460DF10701FFF7D3FF002845D166
:101A480094F850319DF8072043B9B4F85211736ADD
:101A58005B1A40F2DE319BB28B4203D984F85051B5
:101A6800C4F84C51736A082AA4F85231D4F84C319E
:101A780005D1002BDDD0013BC4F84C31D9E70D2A44
:101A880001D00A2A24D1002BD3D00025234483F87F
:101A98000851204904F5A47204F58470FFF77FFD0E
:101AA8000123C4F8540184F850318DF80D3084F8BE
:101AB800FC50202383F31188174BD3F8AC20AA429B
:101AC8000FDC00F061FA002383F3118804B070BDC5
:101AD8003E2BAED8591C2344C4F84C1183F8082176
:101AE800A7E7013AC3F8AC20D3F89420039802F191
:101AF800080104F58274C3F894101460506003F16F
:101B080090029142054828BFC3F8943000F068FA63
:101B1800D7E700BFD0270008000400209804002061
:101B2800C268D2E90013054A9342054A0CBF92687D
:101B38005268B2FBF1F29A60704700BF003801406A
:101B4800A0060020C36837B5044698689989FFF74E
:101B5800A9FE584B07299A6942F001029A6179D87F
:101B68000F2589000268C9B28D4022EA0502026089
:101B78000922056802FA01F129430160E2684E4929
:101B880052688A4276D19A6942F480429A619B6986
:101B98002046FFF7C5FF0022E068092143688069F5
:101BA8001A612346454A00F0A5FCE36841685A6873
:101BB8006060101D8860186A012508600C2184F88F
:101BC8009850D160C02118695161998AFFF76AFE5F
:101BD800C3688D401D430729C5605BD80F22890063
:101BE8000368C9B28A4023EA020303600823026833
:101BF80003FA01F1114301600023E0681A46092144
:101C0800C06900F077FCE16843684A68A060101D6D
:101C1800986004F1A800D8605420496A5860196097
:101C2800196841F001011960D36843F40053D36087
:101C3800234B1A6802B91C60224C236843B90093ED
:101C480080224FF49071204B204800F0A3FA2060C6
:101C580003B030BD0F25083989004268C9B28D40EC
:101C680022EA050242600922456802FA01F1294385
:101C7800416083E716498A4205D1DA6942F40032A5
:101C8800DA61DB6984E713498A4281D1DA6942F46F
:101C98008022F5E70F22083989004368C9B28A40D3
:101CA80023EA020343600823426803FA01F111435F
:101CB8004160A1E700100240003801408D1900087A
:101CC800F0070020F407002069180008D00600205B
:101CD8000044004000480040202383F3118801237A
:101CE80080F8FC30002383F311887047FFF7F4BFB6
:101CF800A0F58270FAE708B500F07CFBBDE8084063
:101D080000F000B800F024B84FF080430022586378
:101D18001A610222DA6070474FF080430022DA60CD
:101D280070474FF08043586370474FF080431A69FB
:101D380010B5920708D500241C61202383F311886D
:101D480000F0A6F984F31188BDE8104000F002BB4A
:101D5800114B0221DA691C2042F00102DA610F4AB4
:101D6800DB69536843F4006353600D4B5A6842F2D1
:101D78001073B2FBF3F24FF08043013A9A624FF6C8
:101D8800FF72DA6200229A615A63DA605A600122AD
:101D98005A611A6000F006B800100240002004E002
:101DA800A00600200122090100F1604303F5614308
:101DB800C9B283F8001300F01F039A4043099B003F
:101DC80003F1604303F56143C3F880211A6070474B
:101DD8000022024BC3E900339A607047380800209C
:101DE800002382680375054B1B6899689142FBD2F2
:101DF8005A680360426010605860704738080020D5
:101E080008B5202383F31188027D0023052A06D80C
:101E1800DFE802F00B050503120E826913604FF02C
:101E2800FF338361FFF7DCFF002383F3118808BDCC
:101E38008269936801339360D0E9003213605A6075
:101E4800EDE70000002382680375054B1B6899685D
:101E58009142FBD85A68036042601060586070472E
:101E68003808002038B50C4C256922682875116897
:101E78004C602160012122611175EFF30982296903
:101E8800243A914202D9054800F0FCF82946206915
:101E9800BDE83840FEF768B9380800202428000853
:101EA8004FF6FF7330B5994204460B4D87B010D0FA
:101EB8002B690A4A01A800F0C3F92046FFF7D2FFB0
:101EC800049B13B101A800F0FFF92B69986907B0CA
:101ED80030BDFFF7C7FFF8E738080020091E0008E3
:101EE80070B5114E8161336981689A6804469142E0
:101EF80003D8BDE87040FFF773BF1846FFF7A2FF8D
:101F08000123054634612375EFF309830269243BF5
:101F18009A4202D9054800F0B5F829462046BDE89E
:101F28007040FEF721B900BF3808002024280008B7
:101F3800044B1A681B6990689B68984294BF0020FC
:101F4800012070473808002038B50D4C23682069F7
:101F58001A685460226001221A752361FFF772FF24
:101F68000546EFF309830269243B9A4202D90548E2
:101F780000F088F829462069BDE83840FEF7F4B833
:101F8800380800202428000808B5FFF7D1FF18B149
:101F9800BDE80840FFF7D8BF08BDFFF7D5BFC0E9C7
:101FA8000000816070470000826810B4541E002C45
:101FB800846011DA21B982604FF0FF3010BC70479D
:101FC800064B42681B6910BC986118605A60136020
:101FD80043600520FFF764BF0020EFE738080020C2
:101FE800826803460132002A826007DC00680268C2
:101FF8001A60536000238361FFF7F2BE7047FEE763
:1020080010B5184CFFF7E4FE00F00EF980222046C8
:10201800154900F083F8154B44F8140C03610123AB
:102028000375134B134AD96821F4E0610904090CBC
:102038000A431149DA60CA6842F08072CA600F49DF
:102048000A6842F001020A601022DA77202283F837
:102058002220002383F3118862B6BDE810400848A7
:1020680000F080B85C080020332800080001002038
:1020780000ED00E00003FA05F0ED00E0001000E0DC
:102088004028000872B6014B1862FEE738080020A5
:102098002DE9F84F0027B8461F4C656904F1140A6A
:1020A8004FF08043586AE38B80B22A89C61AB6B2C9
:1020B800B2421DD84FF020092B89E28BF61A1A4438
:1020C8002B68E2835345C3F804A0D5F80CB06361CC
:1020D800B6B2EF6001D1FFF71FFE88F311882869B7
:1020E800D84789F3118865692B89B342E4D9D7E7C2
:1020F800626952450ED01189E0830B441B1A138183
:102108002B89022B2CBFC0180230BDE8F84F80B2D3
:10211800FFF707BEBDE8F88F38080020826002226A
:1021280082827047D0E9012343F8102CA3F14402BE
:1021380043F8142C026943F8442C426943F8402CB4
:10214800074A43F8242CC268A3F1200043F8182C4E
:10215800022203F80C2C002203F80B2C704700BF56
:10216800810100085521D0E9013210B59A420DD8F5
:10217800202383F31188FFF7D5FF00210446FFF7DA
:10218800AFFE002383F31188204610BD03F8011B1E
:10219800ECE7000070B5044655264518A5421CD842
:1021A800202484F311882039441844F8243C049BE3
:1021B800A4F1240144F8203C094B206144F8043C74
:1021C8000223E160A38200212046A260FFF788FE77
:1021D800002383F31188204670BD04F8016BDDE706
:1021E80081010008024B1B6998610F20FFF73ABE76
:1021F80038080020202383F31188FFF7F3BF08B5C0
:102208000146202383F311880820FFF749FE0023A5
:1022180083F3118808BD0346006820B100221A60C4
:102228008161FFF7DDBD7047044B03F11402C3E978
:1022380005224FF6FF72DA61704700BF38080020A8
:10224800F8B5C0E903234FF080430646586A1D4B92
:1022580002291A4652F8145F38BF022195421F46D8
:1022680080B20BD1D8830844C3E9056680B2C6E9B9
:1022780000553181BDE8F840FFF746BDDB8B2A8960
:10228800C01A80B201448CB2844203D2A41A2D68C9
:10229800A4B205E0A24203D9181980B2FFF741FDA4
:1022A8002B89A3420CD36B68356073601E606E6027
:1022B80034812B891C1B4FF6FF732C81BB83F8BD1F
:1022C800E41AE4E7380800201C4910B40A4652F81A
:1022D800144F036884420DD041680B60036859604D
:1022E80000219342C16003D01A8901890A441A81E6
:1022F80010BC7047002093424B615A60E06002D1E5
:1023080010BCFFF709BD18892289C98B104480B217
:1023180018814FF080435B6A9BB25A1A92B290427E
:10232800E6D9CB1A03449BB2012B9CBF023290B270
:10233800084410BC80B2FFF7F4BC00BF3808002086
:10234800EFF30983203383F30988002383F311888B
:1023580070470000202310B583F311880D4B5B688C
:1023680013F4006312D0EFF309844FF0807344F83C
:10237800043CA4F1200383F30988FFF7D9FD18B1C1
:10238800054B44F8083C10BD044BFAE783F3118869
:10239800F9E700BF00ED00E0910100089401000892
:1023A800704770477047FEE7F0B5082000261049CF
:1023B800D1E901341D460A68043AAC4210D8E21C3F
:1023C800D21ADD1E22F00302AC4238BF00221344A9
:1023D800CA689A4209D8013801F11001E8D1F0BD64
:1023E80052F8047F45F8047BE7E743F8046BF0E70D
:1023F800582800084FF0FF3108B50E4B1A691961CB
:102408001A6900221A611869D868D960D968DA602F
:10241800DA68DA6942F08052DA61DA69DA6942F038
:102428000062DA61DB6900F007F8BDE8084000F0F7
:10243800CFB800BF0010024000230121084A10B5A0
:10244800C2E90033074844681030236042F831304D
:1024580001310829F7D14FF0FF32034B5A6010BD04
:10246800F8070020D82800080000024006289C46EB
:102478002DE9F04136D801271B4C874023681F42BD
:1024880030D11A4E3B4323604FEA0018184B06EB35
:102498000015013044F8302004EBC000C0F804C037
:1024A800586940F0010058615B694AB16268AB68DD
:1024B8001A4202D1E87BFFF775FC63681F43676027
:1024C80006EB08014B68497B1A6856F8080022F0A9
:1024D8000F021A600E228A40426000221A602846C3
:1024E800BDE8F0810025FAE7F8070020D8280008A1
:1024F8000010024010B5202484F31188FFF7B6FFBE
:10250800002383F3118810BD10B40468437B21684D
:102518004268D940126801F00E010A420ED0827B4F
:1025280001FA03F36360064B013253F832402CB1D1
:1025380003EBC2035868234610BC184710BC704709
:10254800F807002008B50348FFF7DEFFBDE808409C
:10255800FFF700BFD828000808B50348FFF7D4FFE5
:10256800BDE80840FFF7F6BEE828000808B50348AC
:10257800FFF7CAFFBDE80840FFF7ECBEF8280008DF
:1025880008B50348FFF7C0FFBDE80840FFF7E2BE03
:102598000829000808B50348FFF7B6FFBDE808405A
:1025A800FFF7D8BE1829000808B50348FFF7ACFFA5
:1025B800BDE80840FFF7CEBE2829000808B5034843
:1025C800FFF7A2FFBDE80840FFF7C4BE382900089E
:1025D800704703460244934200D1704703F8011B39
:0225E800F9E711
:1025EC0000000000000000000102030406070809B7
:1025FC000000000001020304434320527374204680
:10260C0061696C0D0043432057204661696C0D00D5
:10261C00434320522F57204661696C3B2072706CEB
:10262C003D25750D0043432052204661696C0D0019
:10263C00434320696E6974206F6B0D00000000002D
:10264C0000000000710200080B0E0C00100E112F80
:10265C001273150021B62210191D1A1C1BC71C0958
:10266C001DB023EA242A2500261F2C882D312E0983
:10267C00564261743A2025756D563B205065726345
:10268C00656E743A2025750D0050696E67004F6BAE
:10269C000D0A0056657273696F6E0032303232303B
:1026AC003731385F32313430004869323220547857
:1026BC0000436D64556E6B6E6F776E0D0A000D25C1
:1026CC00532025530D000000000000000000000006
:1026DC005D0B0008F5080008AD0A000800000000BA
:1026EC0000FF01480000000000000000000001484D
:1026FC0000000000042D0000000000C201000024B6
:10270C00030000000000E01064000E105000E20E08
:10271C003C00B60D2800A80C1400E60A0A0000C202
:10272C00010000FF00C201000024030000000000B3
:10273C000D486172644661756C740D005665637466
:10274C006F72353800556E68616E646C6564202557
:10275C00530D00566563746F723543005665637490
:10276C006F72363000566563746F7236340056657E
:10277C0063746F72363800566563746F7239430038
:10278C00566563746F7245300041484246726571FC
:10279C003D25754D487A3B2041504231467265715A
:1027AC003D25754D487A3B20415042324672657149
:1027BC003D25754D487A0D0000000000000000001A
:1027CC0045150008202C000000000000000000004F
:1027DC0055180008291A0008CB190008E11900083F
:1027EC0089180008571800085F180008F51C000825
:1027FC0000FFFFFF00000000CF190008E5190008DA
:10280C00FCFEFFFF00000000F91C0008A7180008E0
:10281C005B18000863180008737461636B206F7693
:10282C006572666C6F77006D61696E0069646C65CA
:10283C000000000038280008780800202809002033
:10284C0001000000072000080000000050290008CB
:10285C0028090020280900202809002050290008F8
:10286C0000000000000000000000000050290008DB
:10287C0000000000000000000000000050290008CB
:10288C0000000000000000000000000050290008BB
:10289C0000000000000000000000000050290008AB
:1028AC00000000000000000000000000502900089B
:1028BC00000000000000000000000000502900088B
:1028CC0000000000000000000000000000000240BA
:1028DC0008000240010000000000000B0000024054
:1028EC001C000240020000000004010C0000024029
:1028FC0030000240040000000008020D00000240FD
:10290C004400024008000000000C030E00000240CE
:10291C0058000240100000000010040F000002409C
:10292C006C00024020000000001405100000024062
:0C293C008000024040000000001806115E
:08294800000000000100000086
:040000050800016985
:00000001FF
