:020000040800F2
:1000000000010020690100086B0100080D130008C1
:100010006B0100086B0100086B0100086B01000810
:100020006B0100086B0100086B010008AD2500089A
:100030006B0100086B0100086B0100086B010008F0
:100040006B0100086B0100086B0100086B010008E0
:100050006B0100086B0100081D1300085D13000808
:100060009D130008DD1300081D140008B1270008C7
:10007000C5270008D9270008ED2700080128000837
:1000800015280008292800086B0100086B010008EA
:100090006B0100086B0100086B0100085D1400088B
:1000A0006B0100086B0100086B0100086B01000880
:1000B000771F00086B0100086B0100086B01000846
:1000C0006B0100086B0100086B0100085517000860
:1000D000851700086B0100086B0100086B01000820
:1000E0009D1400086B0100086B0100086B010008FB
:1000F0006B0100086B0100086B0100086B01000830
:100100006B0100086B0100086B0100086B0100081F
:100110006B0100086B0100086B0100086B0100080F
:100120006B0100086B0100086B0100086B010008FF
:100130006B0100086B0100086B0100086B010008EF
:100140006B0100086B0100086B0100086B010008DF
:100150006B0100086B0100086B0100086B010008CF
:08016000810A0008690F000884
:1001680016E000F000F8FEE72DE9F04FC1F80CD0DA
:10017800C3689D46BDE8F08F002383F311882846A5
:10018800A047002002F058F902F029F800DFFEE746
:1001980072B6274880F30888264880F309882648DD
:1001A8004EF60851CEF200010860022080F3148850
:1001B800BFF36F8F02F026FA02F025FA4FF05530A0
:1001C8001E491B4A91423CBF41F8040BFAE71C49FF
:1001D800184A91423CBF41F8040BFAE719491A4AF8
:1001E8001A4B9A423EBF51F8040B42F8040BF8E749
:1001F80000201749174A91423CBF41F8040BFAE71F
:1002080002F004FA02F000FA134C144DAC4203DA7F
:1002180054F8041B8847F9E700F004FE104C114D10
:10022800AC4203DA54F8041B8847F9E702F0EDB949
:10023800000100200002002000000008000000204B
:1002480000010020AC2B0008000200200002002062
:1002580000020020B00800206001000868010008C2
:100268006801000868010008816A10B5044619B1E0
:1002780088470023A36210BD2430BDE8104002F077
:10028800FBB80000104B984205D1104A936943F01F
:100298000403936170470E4B984204D10B4A93694B
:1002A80043F00803F5E70B4B984204D1074A9369DA
:1002B80043F01003EDE7084B9842EBD1034A9369EA
:1002C80043F02003E5E700BF0008014000100240AA
:1002D800000C01400010014000140140036819732C
:1002E80003689A68D207FCD5187B704710B5FFF7EA
:1002F800C9FF134A0729936943F0010393610ED894
:100308000F2289000368C9B28A4023EA0203036006
:100318000923026803FA01F11143016010BD0F229D
:10032800083989004368C9B28A4023EA0203436056
:100338000923426803FA01F111434160EEE700BF67
:100348000010024001238288012903FA02F30BD02E
:10035800022911D039B90A4A916819439160D168C4
:1003680021EA0303D3607047054A916821EA030133
:100378009160D1680B43F5E7014A91681943F7E7A3
:100388000004014070B50446A6790068A588FFF707
:1003980079FF002E3DD00123C268AB40022E0CBF6E
:1003A80022EA030313430822C360072D33D8AB00A6
:1003B8000F250668DBB29D4026EA0505056005683D
:1003C80002FA03F32B430360A08825682A4E00F045
:1003D8000302B542C0F387034FEA82022AD10125FE
:1003E8009B0003F1804303F580339E6805FA02F20F
:1003F80032439A600126214D86402B6820463343BC
:100408002B606B6823EA06036B60FFF79BFF6E6146
:1004180070BD0422C9E70F26083DAD004368EDB260
:10042800AE4023EA06034360436802FA05F51D431C
:100438004560C9E7124EB54207D19B0003F18043DE
:1004480003F5803302259E68D0E70E4EB54207D1EA
:100458009B0003F1804303F5803303259E68C5E7BD
:10046800094EB542C6D19B0003F1804303F58033A2
:1004780004259E68BAE700BF000C01400004014053
:100488000010014000140140001801400123428A75
:1004980081689340034A8868184002D0013AFAD12B
:1004A80001207047B88201000123C18AC2688B40CD
:1004B800136170470148FFF7D7BE00BF0002002054
:1004C8007F2908B2C4BFA1F5807108B200EBD070D3
:1004D80040104A3840B270472DE9F0414FF001080A
:1004E800C38A1646C26808FA03F3536104460F46E6
:1004F800FFF7CCFF054630B12046FFF7D5FF45464C
:100508002846BDE8F08104F1040847F08001404620
:10051800FFF7E4FE294684F820004046FFF7DEFE98
:1005280030702046FFF7C0FFEAE72DE9F0414FF0B1
:100538000108C38A1646C26808FA03F353610446E1
:100548000F46FFF7A3FF054630B12046FFF7ACFF83
:1005580045462846BDE8F08104F10408394640467E
:10056800FFF7BCFE31464046FFF7B8FE2046FFF7CE
:100578009BFFEEE7F8B50127C38AC26807FA03F3C1
:10058800536104460E46FFF781FF054628B1204611
:10059800FFF78AFF3D462846F8BD3146201DFFF784
:1005A8009DFE84F820002046FFF77EFF94F8203057
:1005B80003F0700384F82030EDE73A21FFF7DABF43
:1005C8007FB50446C068E18AFFF75CFE072940D87A
:1005D8000F2289000368C9B28A4023EA0203036034
:1005E8000123026803FA01F111430160218AA0681E
:1005F800FFF77CFE618AA068FFF778FEA18AA068F1
:10060800FFF774FE012104F11800FFF7BBFE204636
:10061800FFF74AFF0023514A1946CDE90023201D60
:100628001A4601F037F8626830211368204643F013
:1006380040031360FFF79EFFD8B16268484813680B
:1006480023F04003136001F0FBF90125284604B0AC
:1006580070BD0F22083989004368C9B28A4023EA6D
:10066800020343600123426803FA01F11143416028
:10067800BCE7072206212046FFF757FF08B1394893
:10068800E1E78DF80F00062120460DF10F02FFF774
:1006980023FF054640B99DF80F60072E06D0314666
:1006A800314801F0CDF9D0E73048CCE72046FFF7D4
:1006B80084FF20220D212046FFF737FF25220E2137
:1006C8002046FFF732FFED220F212046FFF72DFFCE
:1006D800A32213212046FFF728FFFF2214212046DA
:1006E800FFF723FF082218212046FFF71EFF324696
:1006F80003212046FFF719FF3F2229462046FFF72E
:1007080014FF062202212046FFF70FFF0C22314674
:100718002046FFF70AFF442208212046FFF705FF7D
:1007280050223E212046FFF700FF32461621204680
:10073800FFF7FBFE302217212046FFF7F6FEA08BBD
:10074800092806D8042806D80630072101F04CFCF1
:100758007CE72820F9E71720F7E700BFA02E630001
:1007680068280008752800088028000895280008CF
:100778003621FFF7FFBE38B504460D4694F8203001
:100788001BB12046FFF7F4FFF8E72A462046BDE8EC
:1007980038400A21FFF7C9BEF8B505460E4695F858
:1007A80020401CB12846FFF7E3FFF8E7771C17F84D
:1007B800142016F8141028460134FFF7B6FE142C3E
:1007C800F5D1F8BD10B5044694F820301BB1204689
:1007D800FFF7CEFFF8E72046BDE810403921FFF7C4
:1007E800C9BE3421FFF7C6BE2DE9F7430E46904631
:1007F80078210DF1070204461F46FFF76DFE90B9F8
:100808009DF90730002B0EDA4FF00109E38AE26800
:1008180009FA03F320465361FFF738FE054620B175
:100828002046FFF741FE012527E004F10409FF21D6
:100838004846FFF753FD3744BE424FF00001484693
:1008480006D0FFF74BFD8DF8070006F8010BF3E71C
:10085800FFF744FD00218DF807004846FFF73EFDED
:100868002046FFF721FEB8F1000F06D020469DF87C
:100878000710FFF725FE88F80000284603B0BDE8FA
:10088800F0832DE9F041DDF818801E4604460F4636
:100898001546FFF792FE202383F311882046FFF7C1
:1008A800A0FF394604F1240001F0D8FD002383F3AA
:1008B8001188013007D03346424629462046BDE814
:1008C800F041FFF791BF2046FFF752FF0220BDE835
:1008D800F08110B442F2107461434FF47A7401F25B
:1008E800E731B1FBF4F110BC89B2FFF7CABF10B50C
:1008F800044694F820303BB136212046FFF73AFEF3
:100908000028F6D001200DE033212046FFF732FE03
:100918000028F7D13D212046FFF72CFE94F820004F
:100928000028F7D110BD000004468FB5264D274E8C
:10093800274F2846FFF7DBFF08231B212846009690
:10094800621CFFF7C6FFB0BBD4F80130BB4232D1FE
:100958004FF4E063ADF80C3063798DF80830A37973
:100968008DF80930E3798DF80A30237A8DF80B3049
:10097800202383F31188174BD3F8AC20002A15DD08
:10098800013AC3F8AC20D3F89420029802F1080188
:10099800C3F8941010600398506003F190029142DC
:1009A8000D4828BFC3F8943001F03CFC01F00EFC60
:1009B800002383F311882846FFF704FF4FF4616092
:1009C80001F03FFDB5E700BF000200203D02002016
:1009D800A15E11CA880300202004002008B5014840
:1009E800FFF7A2FF2C02002038B503780546FBB9B3
:1009F8001148FFF7E5FD0446E0B9082206210E4834
:100A0800FFF793FD302217210B48FFF78EFD0721D2
:100A18000948FFF7B0FE50223E210748FFF785FD41
:100A280006490548FFF7B8FE01232B70204638BD5C
:100A38000024FBE70124F9E700020020B828000899
:100A480013B5FFF7D1FF044668B9084800F0F8FF6E
:100A5800FF224FF49071064B0648009401F0BCFC4D
:100A6800204602B010BD0124FAE700BFAC280008F8
:100A7800E5090008400200200D4B0E4A0E481A6096
:100A88000E4A0F495A60A2F52052C3E902229A6120
:100A980004229A830022C3E90401C3E9092209490F
:100AA80009489A7783F82020084B08611A70704724
:100AB80000020020A82800080500060000300140B8
:100AC8000700020034060020BD0400082C020020A4
:100AD800CA0010B502F10803541CA34234BF012315
:100AE8000823134400EB011100EB4300002331F805
:100AF800022B81421344FAD1D80810BDC3680BB148
:100B080001F014BD70470269036803EB820319639F
:100B1800704708B500212C30FFF7F5FF08BD00002D
:100B280010B500211D48FFF7D3FF012104461B48DB
:100B3800FFF7CEFF4FF496616143B1FBF0F1490036
:100B48008BB2B3F5875F1DD241F20D0293421BD8D9
:100B580040F6E162934219D840F6B552934217D84D
:100B680040F6A742934215D840F6E522934213D99E
:100B780005230B4A02EB83039A780A48BDE8104024
:100B880000F05EBF0023F4E70123F2E70223F0E759
:100B98000323EEE70423ECE70022EEE760030020DE
:100BA80076290008E028000870B50F490446006D52
:100BB80000F0FCFD30B923680C495B682046BDE8AD
:100BC800704018470A49206D00F0F0FD236840B9CD
:100BD8005D682046AC46BDE87040064B064A0749AA
:100BE80060475B680649E9E7F9280008FE2800081D
:100BF800032900080B290008192900082F290008D3
:100C0800212900080025204C83B504F198072023EA
:100C18008DF80550009583F311884FF6FF7138461B
:100C280001F0E4FAA0B9D4F89020184802F10803BA
:100C3800C4F89030834228BF2346116814300091CD
:100C48005268C4F89030019201F0ECFA01F0BEFA53
:100C580085F311889DF80530022B0CD0052B0FD099
:100C6800012BD4D1009E3046FFF79EFF33683046F3
:100C78001B689847CBE74AF6AA22054B1A60C6E7D5
:100C8800FFF74EFFC3E700BF8803002018040020C9
:100C98000030004070B5061D044630460D46FFF78B
:100CA8002DFF42F210724FF47A7302FB05F101F244
:100CB800E731B1FBF3F130462346BDE87040024A04
:100CC80089B201F0EFBB00BF6510000838B5C269F2
:100CD80090F84830517904468B422AD0D2F8015016
:100CE8002C304DB9FFF70FFFE3695A7984F8482093
:100CF8000633E361002018E08B4217D2013384F8F1
:100D0800483094F84810FFF7FEFEE36994F848204D
:100D180059799142ECD0D3F801100432B1FBF2F1C9
:100D280020460131FFF7B6FF012038BDE9D9013B64
:100D3800E5E70632C261DDE708B5D0F8AC30002B34
:100D480019DD013BC0F8AC30D0F8943003F108024B
:100D5800C0F894200A681A604A685A60D0F894204B
:100D680000F190039A4228BFC0F89400983001F02F
:100D780059FA002008BD0220FCE7000038B50369D5
:100D8800044613B10430FFF7B9FE4FF0FF35E369AD
:100D98001A78042AFDD8DFE802F0030A1425310086
:100DA800236820469B6898470128F0D138BDD3F8BE
:100DB80001100633E3610029E9D02046FFF76AFFF6
:100DC800F4E70621D3F80130A26901FB0323E361AC
:100DD80094F8293023B1124804F12401FFF7ACFF3D
:100DE8000121EAE794F8293023B10D4804F12401E0
:100DF800FFF7A2FF0023C4E90633D7E7226A0132CE
:100E080004BFD3F801202262226A1AB90633256288
:100E1800E361BCE7A369013AE3612262B7E700BF77
:100E28008803002008B541F2941000F06BFB00F035
:100E380051FB002308211A463A4800F019FC3948AA
:100E480000F06CFB01F079F801F0FCF90122364C56
:100E5800364B04F1A40012211A70C4E9244401F0AD
:100E6800C0F9002104F1980001F0BBF9304800F006
:100E78008BFF4FF000722F4B2F495A602F4C304A8E
:100E8800304800F0DDFD274800F0A2FB04F12C00FB
:100E980000F09AF9E16C04F12C0000F0D1FB00217C
:100EA80004F12C00FFF72FFE274A2848936943F0E6
:100EB80004039361A2F58432136823F0F0031360EE
:100EC800FFF7BEFD202205464FF0FF33E8B982F355
:100ED800118823621E4B2046C4E90633FFF74EFFF4
:100EE80085F31188202383F311881A4C258B201D44
:100EF800FFF704FE23462946174A201D01F0D2FABF
:100F0800002383F31188FFF77DFE82F311882362A3
:100F1800124B2046C4E90633FFF730FF002383F362
:100F28001188DFE7280600208803002088040020B5
:100F3800A8040020000001401929000838040020F6
:100F48000B2900082E290008001002402C0200205E
:100F58008E2900088C040020651000084C29000820
:100F680000200021314B70B5C3E900014FF4E13195
:100F78002F4AC3E924332F4B0326C2E90013A3F5F4
:100F88004053936013610A23938204239220C2E999
:100F980006634FF485530921C2E90803264B918162
:100FA800DA6003F11002C3E924220122002483F845
:100FB800982083F8FC20214A214D1A6002F128016B
:100FC8003832C3F80011C3F8042121461C22C3E9B2
:100FD8000144C3E92744C3F8A440C3F84841A3F82F
:100FE8005241C3F84C4183F85041C3F85441281D7D
:100FF80001F021FC134A14492A60144A4FF0FF33C8
:10100800C5E90B21C5E90E26FF22C5E908346A6443
:10101800EB640F4A0F4B85F829401A600E4AAC86DC
:101028009A61A5F8404085F8484070BD88030020C3
:101038000006002000380140A8040020402A0008CB
:101048003804002040290008000C0140000400403A
:10105800302A00088C04002006270201202208B547
:1010680082F3118803681B689847002383F311886B
:1010780008BD0000044B5A6A42F001025A625A6ADB
:101088009207FCD5704700BF0010024073B5837EFD
:1010980004468DF80530194BD3F8AC20002A18DD2A
:1010A8000021013AC3F8AC20D3F8942002F10800DB
:1010B800C3F89400117051709170D170019951600A
:1010C80003F1900290420E4828BFC3F8943001F013
:1010D800A9F8E37E012B0FD12369268B251D13B1B7
:1010E800284601F023FA234631462846054A02B02D
:1010F800BDE8704001F0D6B902B070BD8803002089
:1011080020040020651000080368264A934206D18F
:10111800254B9A6942F400629A619B697047B3F162
:10112800804F07D103F50433DA6942F00102DA612E
:10113800DB6970471D4A934204D11B4BDA6942F0C0
:101148000202F4E71A4A934204D1174BDA6942F0D3
:101158000402ECE7174A934204D1134BDA6942F0D0
:101168001002E4E7144A934204D10F4BDA6942F0C3
:101178002002DCE7114A934204D10B4B9A6942F4EE
:101188008032C9E70E4A934204D1074B9A6942F468
:101198000032C1E70B4A9342C0D1034B9A6942F42B
:1011A8008022B9E7002C01400010024000040040F2
:1011B80000080040001000400014004000400140BA
:1011C800004401400048014010B50146FFF79CFF6C
:1011D8004FF4404203685A648269DA62027D00690A
:1011E800012A00F1FF300CBF0722062203280BD882
:1011F800DFE800F002323A42986940EA02129A6146
:101208001A6A42F001021A621A68486842F001023A
:101218001A602F4A0B899042497D02F5843233D1F6
:10122800946944F0040494619469072B44F0010420
:1012380094614FEA810242F009023AD80F249B00D8
:101248000168DBB29C4021EA04010160016802FAEE
:1012580003F30B43036010BD986940EA02329A61B8
:101268001A6A42F01002CEE7D86940EA0212DA613F
:101278001A6A42F48072C6E7D86940EA0232DA6133
:101288001A6A42F48052BEE7124CA04203D1946914
:1012980044F00804C7E7104CA04203D1946944F015
:1012A8001004C0E70D4CA042BED1946944F020045C
:1012B800B9E70F24083B9B004168DBB29C4021EA58
:1012C80004014160416802FA03F30B434360C2E73B
:1012D80000080140000C01400010014000140140CA
:1012E800074B01385A6922F080025A6110F8012F21
:1012F80022B119680906FCD55A60F7E7704700BFA4
:101308000038014008B50248FFF7EAFF01BEFEE7D2
:10131800A029000808B5202383F31188094B1B680E
:1013280053B198470122084B5A61002383F311886F
:10133800BDE8084001F040B90449054800F098FBB1
:10134800F0E700BF3406002000040140AC29000883
:10135800B529000808B5202383F31188094B5B6879
:1013680053B198470222084B5A61002383F311882E
:10137800BDE8084001F020B90449054800F078FBB1
:10138800F0E700BF3406002000040140C32900082C
:10139800B529000808B5202383F31188094B9B68F9
:1013A80053B198470422084B5A61002383F31188EC
:1013B800BDE8084001F000B90449054800F058FBB1
:1013C800F0E700BF3406002000040140CC290008E3
:1013D800B529000808B5202383F31188094BDB6879
:1013E80053B198470822084B5A61002383F31188A8
:1013F800BDE8084001F0E0B80449054800F038FBB2
:10140800F0E700BF3406002000040140D529000899
:10141800B529000808B5202383F31188094B1B69F7
:1014280053B198471022084B5A61002383F311885F
:10143800BDE8084001F0C0B80449054800F018FBB1
:10144800F0E700BF3406002000040140DE29000850
:10145800B529000808B5202383F31188094B1B68B8
:101468005BB198474FF47872074B5A61002383F3B6
:101478001188BDE8084001F09FB80449044800F00D
:10148800F7FAEFE74C06002000040140E7290008BE
:10149800B529000808B5202383F31188094B1B6878
:1014A8005BB198474FF47C42074B5A61002383F3A2
:1014B8001188BDE8084001F07FB80449044800F0ED
:1014C800D7FAEFE74806002000040140F029000899
:1014D800B52900087047000045F25553084A1360C3
:1014E8000623536028235843B0F5801F28BF40F6D1
:1014F800FF704AF6AA2338BF000A9060136070474D
:101508000030004008B5FFF7B5FDFFF7E5FF4CF6E2
:10151800CC42014B1A6008BD00300040264BF0B5A4
:1015280003F1100704463E4687B002AD2A46186804
:101538005968083303C2BB421546F7D16B46306879
:1015480071681E4A03C35368C3F38103012B2ED06D
:10155800022B2ED153685168C3F38343C80303F1A8
:1015680002031DD416494B43516806A8C1F3031161
:10157800014411F8101CCB40236051685268C1F334
:101588000221C2F3C2220144024411F8181C12F8C5
:10159800182C23FA01F1D3406160A36007B0F0BDB5
:1015A8005168890301D50749DDE70749DBE7064BA1
:1015B800DAE7064BD8E700BF5028000800100240C1
:1015C80000093D00808D5B00001BB70000127A0007
:1015D80006480749836805C8B3FBF1F3B2FBF1F28B
:1015E800B0FBF1F1034800F02BBA00BF2806002039
:1015F80040420F00F92900080D4B0E4A99420E4B44
:101608000AD00E48814207D000F58060814203D09D
:1016180000F58060814206D15268986812F4005F34
:1016280018BF400070475268586812F4806FF7E797
:10163800002C014000100240280600200040014014
:1016480038B505460C4601680848FFF7D5FF2B68F2
:10165800DA6A0132B0FBF2F0B0FBF4F2A04228BF24
:1016680002F1FF329A6200225A6238BD2806002031
:1016780010B5074C606820F47F5020F0300040EA35
:10168800C32040EA022040EA0110606010BD00BF9C
:101698000010024070B50068294D049CA84238D15A
:1016A80005F56045AE6946F48056AE61AD694FF404
:1016B80041750129056002BF016841F080010160A0
:1016C800012A02BF026842F002020260012B02BF37
:1016D800036843F001030360194B9842194B0CBF90
:1016E8009B685B68B3FBF4F3802B1DDC402B1DDC8F
:1016F800202B1DDC102B1DDC082B1DDC042B1DDC16
:10170800022BD4BF00230123026842EAC30303600B
:1017180070BD0D4DA842CAD105F5EC35EE6946F409
:101728008046EE61ED69C2E70723EDE70623EBE7A4
:101738000523E9E70423E7E70323E5E70223E3E7D3
:1017480000300140280600200038004008B520235A
:1017580083F31188074B9B68DB0703D5064B1B688F
:1017680003B19847002383F31188BDE8084000F0CF
:1017780023BF00BF003001405006002008B52023D9
:1017880083F31188074B9B68DB0703D5064B1B685F
:1017980003B19847002383F31188BDE8084000F09F
:1017A8000BBF00BF0038004054060020884230B507
:1017B80015D0431E13F8014F2046A4F14102192AFF
:1017C80011F8012B98BF04F12000A2F14105192D51
:1017D80098BF2032801A01D1002CEBD130BD0020F7
:1017E800FCE770B508B9106868B103460E4618469C
:1017F80013F8014B16F8015B15B1AC42FAD1F5E7C5
:101808002CB92046146070BD23460CE015B90E466D
:1018180013F8014B16F8015BAC42F7D1002CF3D05A
:10182800002103F8011C1360EDE703461A461178FE
:1018380001330029FAD1101A70472DE9F04385B019
:10184800984601AB0646002508461F469DF830908D
:10185800B0FBF2F4844602FB140120460929CCB2FD
:1018680094BF30343734E4B2944505F1010503F8E8
:10187800014BEDD22C46336844451B680BD24946D0
:101888003046984718B10C2005B0BDE8F083013404
:10189800F1E7002DF8D03368013D30461B68795DCB
:1018A80098470028F5D0EEE72DE9F04F0B4605469E
:1018B80014464FF00A0B85B01E4616F8011B31B9C5
:1018C80028462B685B6805B0BDE8F04F1847252906
:1018D80002D02B681B6864E05F784FF00008302F57
:1018E80014BF20279E1C16F8011BA1F13000C0B2BE
:1018F800092804D92A2905D154F8040BC0B20BFBD6
:101908000808F0E72E2909D116F8011BA1F13003C8
:10191800092BF9D92A2901D10434F5E763293BD0E9
:1019280015D8412966D003D82529D2D03346C3E734
:10193800532939D05829F9D143461022009728460F
:1019480054F8041BFFF779FF0028EFD0B8E7732994
:101958002AD01BD8642901D06929E7D1A14659F8B2
:10196800044B002C07DA2B682D2128461B68984762
:101978000028A5D1644243460A22214628460097FA
:10198800FFF75BFF00289BD14C46CFE77529CDD1E7
:1019980043460A220097D2E72B6854F8041B1B68B9
:1019A800C9B228469847CFE7D4F800904846FFF7D1
:1019B8003CFF824609F1FF39B9F1FF3F09D019F818
:1019C800011F31B12B6828461B6898470028F3D0BF
:1019D80076E7A8EB0A08B8F1000F01DC0434A5E7A4
:1019E8002B68394628461B68984708F1FF380028B5
:1019F800F1D065E70027D4E9019823685FFA88FAEF
:101A080003934F4501DB0C3490E76FB9039B102219
:101A1800D95D3023284600930223FFF70EFF0028E4
:101A28007FF44EAF0137ECE7B8F1000FEED02B682A
:101A3800514628461B6898470028E7D040E7000031
:101A48000FB407B504AB53F8041B0193202383F3A9
:101A580011880648019AFFF727FF002383F31188AE
:101A680003B05DF804EB04B0704700BFA805002080
:101A78000FB407B504AA52F8041B04480192FFF7F3
:101A880013FF03B05DF804EB04B07047A80500200D
:101A980070470120704701207047012070470120DE
:101AA8007047000008B5064C40F2DE3000F0C9FC73
:101AB80020680028F8D003685B689847F4E700BFFF
:101AC800780700200EB403B503AA52F8041B00F5EA
:101AD80080700192FFF7E8FE02B05DF804EB03B0F6
:101AE8007047A0F58270EDE7104B984205D1104A77
:101AF800936943F00403936170470E4B984204D1F5
:101B08000B4A936943F00803F5E70B4B984204D15D
:101B1800074A936943F01003EDE7084B9842EBD16D
:101B2800034A936943F02003E5E700BF000801403A
:101B380000100240000C0140001001400014014058
:101B4800034653F8902FD0F89C109B1A8B4228BF5D
:101B58000B46C0F8A0307BB1002380F8983043686A
:101B68005B68DA60D0F8A0205A60C268126A1A600E
:101B78001A6842F001021A607047436810B4596845
:101B88000A6822F00F020A60597B1A680E238B40FC
:101B98000146536051F8902FD0E9273422448A42F5
:101BA800A3EB040328BF00F11002C0F89C30C0F872
:101BB800902033B9012380F89830036810BC1B6863
:101BC800184710BCFFF7BCBFFFF7D7BFD0F89C3051
:101BD8007F2B16D8D0F894305A1CC0F8942019706E
:101BE800D0F8942000F190039A4224BF00F110032A
:101BF800C0F89430D0F89C300133C0F89C300020F5
:101C080070470C207047FFF7E1BFA0F58070FAE736
:101C180090F898300BB1FFF793BF7047FFF7F8BF04
:101C2800A0F58070FAE78368D0F8A4205B685B6849
:101C3800C3F154039B1A48BF543383B1531CC0F8F3
:101C4800A430024492F8A8300B70D0F8A430532B7B
:101C58004FF0000301DDC0F8A430184670470B2090
:101C6800704700007FB590F8FC300446002B4FD039
:101C780000254FF0804620460DF10701FFF7D3FFFE
:101C8800002845D194F850319DF8072043B9B4F89D
:101C98005211736A5B1A40F2DE319BB28B4203D950
:101CA80084F85051C4F84C51736A082AA4F8523188
:101CB800D4F84C3105D1002BDDD0013BC4F84C31B0
:101CC800D9E70D2A01D00A2A24D1002BD3D0002528
:101CD800234483F80851204904F5A47204F584705C
:101CE800FFF77FFD0123C4F8540184F850318DF8C3
:101CF8000D3084F8FC50202383F31188174BD3F858
:101D0800AC20AA420FDC00F061FA002383F31188AB
:101D180004B070BD3E2BAED8591C2344C4F84C11F6
:101D280083F80821A7E7013AC3F8AC20D3F8942038
:101D3800039802F1080104F58274C3F89410146042
:101D4800506003F190029142054828BFC3F89430CF
:101D580000F068FAD7E700BF342A0008880300209B
:101D680020040020C268D2E90013054A9342054ABC
:101D78000CBF92685268B2FBF1F29A60704700BFDC
:101D88000038014028060020C36837B50446986823
:101D98009989FFF7A9FE584B07299A6942F0010271
:101DA8009A6179D80F2589000268C9B28D4022EA64
:101DB800050202600922056802FA01F1294301605F
:101DC800E2684E4952688A4276D19A6942F4804262
:101DD8009A619B692046FFF7C5FF0022E068092148
:101DE800436880691A612346454A00F0B5FCE368F8
:101DF80041685A686060101D8860186A012508608B
:101E08000C2184F89850D160C02118695161998AD1
:101E1800FFF76AFEC3688D401D430729C5605BD87C
:101E28000F2289000368C9B28A4023EA02030360CB
:101E38000823026803FA01F1114301600023E068F6
:101E48001A460921C06900F087FCE16843684A68BE
:101E5800A060101D986004F1A800D8605420496A59
:101E680058601960196841F001011960D36843F49A
:101E78000053D360234B1A6802B91C60224C2368B4
:101E880043B9009380224FF49071204B204800F012
:101E9800A3FA206003B030BD0F25083989004268D5
:101EA800C9B28D4022EA050242600922456802FA59
:101EB80001F12943416083E716498A4205D1DA696D
:101EC80042F40032DA61DB6984E713498A4281D13E
:101ED800DA6942F48022F5E70F220839890043685D
:101EE800C9B28A4023EA020343600823426803FA1E
:101EF80001F111434160A1E70010024000380140A0
:101F0800D11B0008780700207C070020AD1A0008C4
:101F1800580600200044004000480040202383F376
:101F28001188012380F8FC30002383F3118870475F
:101F3800FFF7F4BFA0F58270FAE708B500F08CFB54
:101F4800BDE8084000F000B800F024B84FF0804326
:101F5800002258631A610222DA6070474FF080430A
:101F68000022DA6070474FF08043586370474FF0A3
:101F780080431A6910B5920708D500241C612023F4
:101F880083F3118800F0A6F984F31188BDE81040A6
:101F980000F012BB114B0221DA691C2042F0010249
:101FA800DA610F4ADB69536843F4006353600D4BF1
:101FB8005A6842F21073B2FBF3F24FF08043013AD1
:101FC8009A624FF6FF72DA6200229A615A63DA6007
:101FD8005A6001225A611A6000F006B800100240E7
:101FE800002004E0280600200122090100F16043D6
:101FF80003F56143C9B283F8001300F01F039A4048
:1020080043099B0003F1604303F56143C3F8802152
:102018001A6070470022024BC3E900339A60704788
:10202800C0070020002382680375054B1B68996868
:102038009142FBD25A680360426010605860704752
:10204800C007002008B5202383F31188027D0023F0
:10205800052A06D8DFE802F00B050503120E82698F
:1020680013604FF0FF338361FFF7DCFF002383F336
:10207800118808BD8269936801339360D0E9003202
:1020880013605A60EDE70000002382680375054B72
:102098001B6899689142FBD85A68036042601060D7
:1020A80058607047C007002038B50C4C2569226875
:1020B800287511684C602160012122611175EFF3C8
:1020C80009822969243A914202D9054800F0FCF8AE
:1020D80029462069BDE83840FEF746B8C007002009
:1020E800882A00084FF6FF7330B5994204460B4D15
:1020F80087B010D02B690A4A01A800F0D3F920460E
:10210800FFF7D2FF049B13B101A800F00FFA2B6967
:10211800986907B030BDFFF7C7FFF8E7C007002090
:102128004D20000870B5114E8161336981689A6845
:102138000446914203D8BDE87040FFF773BF1846C4
:10214800FFF7A2FF0123054634612375EFF30983E6
:102158000269243B9A4202D9054800F0B5F829469D
:102168002046BDE87040FDF7FFBF00BFC007002054
:10217800882A0008044B1A681B6990689B68984273
:1021880094BF002001207047C007002038B50D4CCF
:10219800236820691A685460226001221A75236135
:1021A800FFF772FF0546EFF309830269243B9A4261
:1021B80002D9054800F088F829462069BDE838406A
:1021C800FDF7D2BFC0070020882A000808B5FFF72E
:1021D800D1FF18B1BDE80840FFF7D8BF08BDFFF729
:1021E800D5BFC0E90000816070470000826810B464
:1021F800541E002C846011DA21B982604FF0FF3040
:1022080010BC7047064B42681B6910BC9861186087
:102218005A60136043600520FFF764BF0020EFE7B2
:10222800C0070020826803460132002A826007DC6A
:10223800006802681A60536000238361FFF7F2BEEA
:102248007047FEE710B5184CFFF7E4FE00F01EF9E2
:1022580080222046154900F083F8154B44F8140CE9
:10226800036101230375134B134AD96821F4E06114
:102278000904090C0A431149DA60CA6842F08072FD
:10228800CA600F490A6842F001020A601022DA7730
:10229800202283F82220002383F3118862B6BDE848
:1022A8001040084800F080B8E4070020972A00088A
:1022B8000001002000ED00E00003FA05F0ED00E069
:1022C800001000E0A42A000872B6014B1862FEE76D
:1022D800C00700202DE9F84F0027B8461F4C656954
:1022E80004F1140A4FF08043586AE38B80B22A89BC
:1022F800C61AB6B2B2421DD84FF020092B89E28B1C
:10230800F61A1A442B68E2835345C3F804A0D5F89B
:102318000CB06361B6B2EF6001D1FFF71FFE88F31E
:1023280011882869D84789F3118865692B89B342D0
:10233800E4D9D7E7626952450ED01189E0830B448E
:102348001B1A13812B89022B2CBFC0180230BDE841
:10235800F84F80B2FFF707BEBDE8F88FC00700202E
:102368008260022282827047D0E9012343F8102C50
:10237800A3F1440243F8142C026943F8442C42693F
:1023880043F8402C074A43F8242CC268A3F12000E4
:1023980043F8182C022203F80C2C002203F80B2C0B
:1023A800704700BF810100085521D0E9013210B5FE
:1023B8009A420DD8202383F31188FFF7D5FF002117
:1023C8000446FFF7AFFE002383F31188204610BDB3
:1023D80003F8011BECE7000070B5044655264518C4
:1023E800A5421CD8202484F311882039441844F8C5
:1023F800243C049BA4F1240144F8203C094B2061AF
:1024080044F8043C0223E160A38200212046A26034
:10241800FFF788FE002383F31188204670BD04F877
:10242800016BDDE781010008024B1B6998610F20F1
:10243800FFF73ABEC0070020202383F31188FFF777
:10244800F3BF08B50146202383F311880820FFF75E
:1024580049FE002383F3118808BD0000054B1B6962
:1024680021B1036098610320FFF73CBE4FF0FF30B5
:10247800704700BFC00700200346006820B1002253
:102488001A608161FFF7CEBD70470000044B03F16D
:102498001402C3E905224FF6FF72DA61704700BFE4
:1024A800C0070020F8B5C0E903234FF08043064673
:1024B800586A1D4B02291A4652F8145F38BF022188
:1024C80095421F4680B20BD1D8830844C3E90566FC
:1024D80080B2C6E900553181BDE8F840FFF736BD46
:1024E800DB8B2A89C01A80B201448CB2844203D2A1
:1024F800A41A2D68A4B205E0A24203D9181980B223
:10250800FFF731FD2B89A3420CD36B6835607360EC
:102518001E606E6034812B891C1B4FF6FF732C8163
:10252800BB83F8BDE41AE4E7C00700201C4910B4D7
:102538000A4652F8144F036884420DD041680B6074
:102548000368596000219342C16003D01A89018948
:102558000A441A8110BC7047002093424B615A60AC
:10256800E06002D110BCFFF7F9BC18892289C98B39
:10257800104480B218814FF080435B6A9BB25A1AAC
:1025880092B29042E6D9CB1A03449BB2012B9CBF6E
:10259800023290B2084410BC80B2FFF7E4BC00BF1E
:1025A800C0070020EFF30983203383F30988002351
:1025B80083F3118870470000202310B583F3118836
:1025C8000D4B5B6813F4006312D0EFF309844FF0EE
:1025D800807344F8043CA4F1200383F30988FFF7CF
:1025E800C9FD18B1054B44F8083C10BD044BFAE787
:1025F80083F31188F9E700BF00ED00E091010008BE
:1026080094010008704770477047FEE7F0B508204E
:1026180000261049D1E901341D460A68043AAC4243
:1026280010D8E21CD21ADD1E22F00302AC4238BFD9
:1026380000221344CA689A4209D8013801F11001EE
:10264800E8D1F0BD52F8047F45F8047BE7E743F88A
:10265800046BF0E7BC2A00084FF0FF3108B50E4BB9
:102668001A6919611A6900221A611869D868D9604B
:10267800D968DA60DA68DA6942F08052DA61DA69D0
:10268800DA6942F00062DA61DB6900F007F8BDE858
:10269800084000F0CFB800BF00100240002301211D
:1026A800084A10B5C2E9003307484468103023606F
:1026B80042F8313001310829F7D14FF0FF32034B8E
:1026C8005A6010BD800700203C2B00080000024023
:1026D80006289C462DE9F04136D801271B4C874037
:1026E80023681F4230D11A4E3B4323604FEA00183B
:1026F800184B06EB0015013044F8302004EBC000FD
:10270800C0F804C0586940F0010058615B694AB1DB
:102718006268AB681A4202D1E87BFFF765FC636820
:102728001F43676006EB08014B68497B1A6856F837
:10273800080022F00F021A600E228A40426000222E
:102748001A602846BDE8F0810025FAE780070020D6
:102758003C2B00080010024010B5202484F3118897
:10276800FFF7B6FF002383F3118810BD10B4046887
:10277800437B21684268D940126801F00E010A4281
:102788000ED0827B01FA03F36360064B013253F8E3
:1027980032402CB103EBC2035868234610BC1847DB
:1027A80010BC70478007002008B50348FFF7DEFF1C
:1027B800BDE80840FFF700BF3C2B000808B50348F8
:1027C800FFF7D4FFBDE80840FFF7F6BE4C2B000822
:1027D80008B50348FFF7CAFFBDE80840FFF7ECBE9D
:1027E8005C2B000808B50348FFF7C0FFBDE80840A8
:1027F800FFF7E2BE6C2B000808B50348FFF7B6FFE9
:10280800BDE80840FFF7D8BE7C2B000808B5034890
:10281800FFF7ACFFBDE80840FFF7CEBE8C2B0008E1
:1028280008B50348FFF7A2FFBDE80840FFF7C4BE9C
:102838009C2B0008704703460244934200D170471E
:0628480003F8011BF9E793
:102850000000000000000000010203040607080950
:102860000000000001020304434320527374204619
:1028700061696C0D0043432057204661696C0D006F
:10288000434320522F57204661696C3B2072706C85
:102890003D25750D0043432052204661696C0D00B3
:1028A000000000000000000071020008434320699E
:1028B0006E6974206F6B0D000B080C00105B11E546
:1028C0001213154621B62210191D1A1C1BC71C0015
:1028D0001DB223EA242A2500261F2C812D312E0922
:1028E000564261743A2025756D563B2050657263DF
:1028F000656E743A2025750D0050696E67004F6B48
:102900000D0A0056657273696F6E003230323230D4
:102910003731385F323033390048693232205478E9
:1029200000436D64556E6B6E6F776E0D0A000D255A
:10293000532025530D00000000000000000000009F
:10294000850D00081B0B0008D50C000800000000D6
:1029500000FF0148000000000000000000000148E6
:1029600000000000042D0000000000C2010000244F
:10297000030000000000E01064000E105000E20EA2
:102980003C00B60D2800A80C1400E60A0A0000C29C
:10299000010000FF00C2010000240300000000004D
:1029A0000D486172644661756C740D005665637400
:1029B0006F72353800556E68616E646C65642025F1
:1029C000530D00566563746F72354300566563742A
:1029D0006F72363000566563746F72363400566518
:1029E00063746F72363800566563746F72394300D2
:1029F000566563746F724530004148424672657196
:102A00003D25754D487A3B204150423146726571F3
:102A10003D25754D487A3B204150423246726571E2
:102A20003D25754D487A0D000000000000000000B3
:102A300095100008202C000000000000000000009D
:102A4000991A00086D1C00080F1C0008251C0008BE
:102A5000CD1A00089B1A0008A31A0008391F0008A5
:102A600000FFFFFF00000000131C0008291C0008E5
:102A7000FCFEFFFF000000003D1F0008EB1A0008ED
:102A80009F1A0008A71A0008737461636B206F76A1
:102A90006572666C6F77006D61696E0069646C6564
:102AA000000000009C2A000800080020B008002058
:102AB000010000004B22000800000000AC2B0008C1
:102AC000B0080020B0080020B0080020AC2B00089F
:102AD000000000000000000000000000AC2B000817
:102AE000000000000000000000000000AC2B000807
:102AF000000000000000000000000000AC2B0008F7
:102B0000000000000000000000000000AC2B0008E6
:102B1000000000000000000000000000AC2B0008D6
:102B2000000000000000000000000000AC2B0008C6
:102B30000000000000000000000000000000024053
:102B400008000240010000000000000B00000240ED
:102B50001C000240020000000004010C00000240C2
:102B600030000240040000000008020D0000024096
:102B70004400024008000000000C030E0000024068
:102B800058000240100000000010040F0000024036
:102B90006C000240200000000014051000000240FC
:0C2BA000800002404000000000180611F8
:040000050800016985
:00000001FF
